:400000000010002011000000750300007503000008B500F0B1F9C04638B5194C23688022D20213432360182000F0EAFF2268154B13402360144A154B1A602022144B1A60E2
:40004000103A144B1A602032134B1A6080221206124B1A6000252560114A124B1A60124A124B1A60124A134B1A600920124900F085FF092000F06CFF104B1D6038BDC04610
:4000800000010B40FFFFFBFF0600008004010B4014020240180202402002024008010B40FE00008000000240FE0000C0400002400100008080000240111200000C020B40FB
:4000C00010B572B6002410E0334863001A195200821891881B195B001A5AC31858880004104300F0ABF90134E4B2012CECD92A49081C0C30283100F087F9C0229200274B01
:400100001A60EE221202264B1A6099231B04254A13608A21C903244A1160244A1360244A1360244A136080229205234B1A60234B197802220A431A70214802783C218A4358
:4001400028390A430270197816220A431A70CC221C4B1A60D82212011B4B1A60C0211B4B196087231A490B601A490B6075331A490B601A490B60FB3B19490B6019490A60EA
:40018000194A13600333194A1360194A1360FFF743FF00F079F910BDCC1F0000000001400C00014000500F4008500F4010500F4020500F4030500F4038500F4000700F408E
:4001C00001700F4000000440080004401800044000010440180104400002044018020440000304400803044018030440000404401804044010B5064C2378002B07D1054B6B
:40020000002B02D0044800E000BF0123237010BD9801002000000000C81F000008B5084B002B03D00748084900E000BF07480368002B00D108BD064B002BFBD09847F9E7E4
:4002400000000000C81F00009C010020C80000200000000038B562B600F08AFA00F090F901F08AF800F012FC00F016FD00F056FB70E0002000F066FC394C2060012000F073
:4002800061FC6060022000F05DFCA060032000F059FCE060042000F055FC2061052000F051FC6061062000F04DFCA061072000F049FCE061082000F045FC2062092000F014
:4002C00041FC60620A2000F03DFCA0620B2000F039FCE0620C2000F035FC206300242BE0A3001F4A9B58012B1BD11E4D286801F0E3FD1D4A1D4B01F00FFB01F0A7FD28604F
:40030000A300174AD3185B6B002B14D1A300D31801225A63A300E3185800C0B200F0C0F809E0A3000E4AD3185B6B012B03D1A300D31800225A6301340C2CD1DD094C206880
:4003400000F0C8FF236864332360094A934201DD044B1A6000F078F900288AD184E7C046B4010020B8020020CDCCCCCCCCCCEC3FFFFF0000FEE7C04670B50F4E0F4D13E0A0
:4003800029686B68AC68002202E001C901C30432A242FAD1E868002202E0002102C304328242FAD11035013E002EE9D101F0DEFDFFF750FFFEE7C04601000000E4210000E1
:4003C00008B500230AE0032B03D89A000A49505800E00A4899000A4A885001332F2BF2D9FFF76EFE0022074B1A608022D205116801230B43136008BD0000000075030000E1
:4004000000000020C0000020F0B50025002711E0BB00C658F3B2FF22964308E06A008A181478A419527822700135013BDBB2002BF4D10137062FEBD9F0BDC04608B50A1C13
:40044000002101F0B9FD08BD0C4B1B68002803D080221206134301E05B005B08074A1360074B1B68002803D080229204134301E0044A1340024A13607047C04680031A406E
:4004800008010B40FFFFFFFD08B50120FFF7DCFF08BDC046000000000000000000000000FEB5494652465B460EB407462E4909688A462E4A12682E48022101F0ABF8030010
:4004C0002A480068C0182A4901F0A4F806001F3EB346234A126801219140C9430C000125002600F02BFD814651460B6823400B605846043000F018FD3800F0402840904082
:400500000B68234003430B60584600F00DFD0136072EF1D900200130012090400B68234003430B605846063000F0FEFC484600F009FDC046C046C0460EBC894692469B46F7
:40054000FEBDC046C046C046C046C046C046C046C046C046C046C046C046C046C046C046D00000201C020020CC0000208C01002000E10000C046C046C046C046C046C0469A
:400580007047C04638B517480368DBB2164A13700F24A343191C154D2A780F2313400B43F02293431A1C2B78A34313430360104A104B1A60104A114B1A60114A1168114B43
:4005C0000B40C021C9000B4313600F2000F0CAFC0F200D4900F0D2FC0F20032100F0E0FC38BDC04600FF0840BC02002062F1FF0F00020001080008400008A0010400084035
:4006000010000140FFF0FFFFBD0C000008B500F077FC00F059FC0020002100F05DFC0020002100F075FC00F061FC00F043FC044A136804490B4313600F2000F089FC08BD66
:400640000400084000100880024B1878012318407047C046200200204000024B181880887047C04620020020F8B5104F3C5C3818027C55005519EDB29200D6B200F05EFC42
:40068000A4003B191C6A22680F21B1408A43111C0422B2400A435E6B33680721A9408B433360226000F04EFCF8BDC04624200000F8B519490C5C0B181E7CB200D2B2750042
:4006C0007519EDB2154B185CA300CB181F6A3B680F2191408B433B60022800D10020012801D1002700E0062700F028FCA4000A4B1C19616B0B680722AA4093431A1C3B1C9C
:40070000AB4013430B6000F01DFCA16C0B680122B24093430B60F8BD24200000F802002010B5002403E0201CFFF7C2FF01340C2CF9D910BD03231840024B1A68400210436E
:40074000186070470400084008B5002303E00021064AD15401330C2BF9D9FFF713FF0020FFF7E8FFFFF7DCFF08BDC046F802002008B50B4B9B7F002B04D1FFF7E5FF012283
:40078000074B9A77FFF742FF00F03CFB0122044BDA77044A13688021C9030B43136008BD2002002004000840CA0807231940063B8B40191C835C194201D0012000E00020A9
:4007C0007047C04610B5041C0134E4B20D2C06D004483430211CFFF7E7FF0028F4D0201C10BDC046D4000020F8B5041C354B5C331D5CAA00344BD6583448211CFFF7D4FF97
:40080000334B9E4203D88640FF2000040643314B185D013880B2002100F05EFB2E4B185D013880B2002100F073FB21232B4AD35C002B1ED00F2000F095FB294B1868802368
:40084000984340210143244B1B5D224A175D7B43DBB21A03D31A1B04AD001B4AAA587A43934201D2C02101431D4B19600F2000F06FFB0F2000F076FB1A490A681A4B1A4091
:400880001A4B185D1A4B1B5D1B04034313430B60134F3D68174B1D40174B1D430F2000F057FB201CFFF7E0FE00F048FB041C3D60002000F039FB114B1E60201C00F042FBDB
:4008C000F8BDC04624200000D4000020C0020020FFFFFEFF08030020C802002020020020040008400800084000FF80FFD8020020E8020020FF1FDFFF20E020000C00084043
:4009000008B5054B00221A70C1B22032995461321A70FFF769FF08BD2002002038B50C4C002323702025FF336355605DC0B2FFF749FF6055635DDBB20C2B08D8217801225E
:400940000A4322702022A05CC0B2FFF74DFF38BD2002002038B5051C174B1C68A4B24300164AD3189C80164B5C331B5C9B00154A9A58154B9A4208D81448291CFFF714FF62
:400980006B000E4AD31804419C80281CFFF790FE0F2000F0E7FA0E4A11680E4B0B40A02109020B4313600C4A11680C4B0B4013600F2000F0CDFA38BD0C0008402002002009
:4009C00024200000D4000020FFFFFEFFC002002004000840FF1FDFFF0800084000FF80FF10B5CC0807231940063B8B40D9B2002A04D0041923781943217003E004192378DB
:400A00008B43237010BDC04670B5061C002400250BE0301CFFF774FFFFF716FE0128FBD0301CFFF719FE24180135002DF1D0A0B270BDC04670B50A4B1C5C4200094BD15A63
:400A4000094BD1521E18002535771E1C2C3635540648005D3C331855054BD15270BDC046802000002402002044020020400100204803002010B5041CFFF742FFFFF7E4FD9B
:400A80000028FBD1201CFFF7D5FF10BD10B5002403E0201CFFF7EEFF01340C2CF9D910BDF0B5474680B4041C224B1D5C224B5A19177C224A565D5B5D984621484C30211CC2
:400AC000FFF772FE002810D01D4B2C331B5DBE1BB34223DA1A4E301C4C30211C0022FFF77FFF3C364346735518E0154B2C331B5DBE19B3420EDB124A3C32535D013BDBB291
:400B00005355002B0AD10E484C30211C0122FFF767FF03E00A4B3C3342465A5508484C30211CFFF741FE002800D0012004BC9046F0BDC04680200000400100206403002073
:400B40004402002070B5084B1C5C1818057C2D190026201CFFF7A4FF002800D001260134AC42F6D3301C70BDC420000043184900C818800880B27047F0B54F464646C0B496
:400B800083B0041C374B1B5C9946374B4A469B5C98464200354BD65A2D23354AD35C002B07D0344D4700795B301CFFF7DFFF061C7853E1B230482D4A00F0AEFC63002F4A90
:400BC0009A5AB24206D800212D4B1955B51AADB2012702E0951BADB20027002F16D1294B49465B5CAB4211D2254B1B5D204A2032125D934206D3201CFFF71CFF0022204B7F
:400C00001A5513E001331E4A13550FE013021B498C460919087F18433018801A020A63006646F25208770022154B1A5543466A46D380D688AE420CD2002F0AD0FF2D04D995
:400C4000FF220E4B2C331A5507E00C4B2C331D5503E00022094B2C331A5503B00CBC90469946F0BD8020000018030020240200204001002048030020F803002044020020AB
:400C8000280300203803002010B5041C00F064F8201CFFF771FF10BD10B5002409E00648211CFFF781FD002802D0201CFFF7ECFF01340C2CF3D910BD0801002010B50F20E3
:400CC00000F050F901221E4B1A601E4B1878C0B2FFF740FE1C4B1B785BB2002B05DA1A4A137801218B43137026E0164C2078C0B2FFF768FD20702378DBB20C2B05D8114BAE
:400D00001878C0B2FFF770FD16E00F4B1A7801218A431A701B785B060ED500220B4B1A7006E00B4AD15C0B4AD1540133074A1370064B1B78012BF4D90F2000F009F910BD65
:400D400014000840400200202002002094020020C402002008010020064B1B5C064AD25C51080648C1540648C154D2080549CA547047C046802000005001002018030020FA
:400D80003803002064030020024A136840218B431360704704000840044A1168044B0B40802189000B4313607047C04608000840FFFCFFFC38B5002208E00D498B5C5D08FD
:400DC0000C4CA55401335B088B54013203789342F3D80F2000F0C6F8074A1168074B0B4007490B4313600F2000F0B2F838BDC046D8020020E802002008000840FFFCFFFC7B
:400E00000002000138B5224B0D221A705A709A700B32DA801F4A9A801F4A9A60FFF7B4FF002304E099001D481D4A88500133184A52789A42F6D8002306E00421194AD1549E
:400E40000239194AD15401330C2BF6D9FFF7A4FF0F4C164D201C291C00F0BEFA201C00F0CCFA0122124B1A70201C291C00F0B4FA201C00F0E3FA201CFFF79CFF002403E0FD
:400E8000201CFFF769FF01340C2CF9D938BDC046F803002066020000E42000000000FF0FD4000020C8020020080300209A0D000041020020034A1368802109060B4313607D
:400EC0007047C04600000240024A13685B005B081360704700000240034A13681B0C1B04184310607047C04600000240034A1368802109060B4313607047C04640000240B2
:400F0000024A13685B005B081360704740000240034A13681B0C1B04184310607047C04640000240000000000230800804D0C0460138FDD1C046C046C0467047EFF3108092
:400F400072B6704780F310887047C046C046C0461F2318401E3B8340181C014B1860704700E100E01F2318401E3B8340181C014B1860704780E100E001BE704738B5041C6F
:400F80000D1C1F2802D90020FFF7F6FFA400034B9C4664442068256038BDC0464000002070B5041C0E1E032E02D90020FFF7E4FF1F2C02D90020FFF7DFFF03252540ED00ED
:400FC0000635FFF7BBFFA408A400074B9C46644423680322AA409343AE40351C1D432560FFF7B0FF70BDC04600E400E008B5034B1B7A5843FFF798FF08BDC0468001002076
:40100000F0B557464E46C0B483B0041CFFF796FF0190E71E2D2F74D83F4B1B78DBB2A34208D33E4B1B78DBB29A463D4B1B78DBB2994631E03B4B1B78DBB2A34208D33A4BD4
:401040001B78DBB29A46394B1B78DBB2994623E0374B1B78DBB2A34208D3364B1B78DBB29A46354B1B78DBB2994615E0334B1B78DBB2A34208D3324B1B78DBB29A46314B3C
:401080001B78DBB2994607E02F4B1B78DBB29A462E4B1B78DBB299462D4BDE5D2F2E09D92A2C07D919222B4B1A600520FFF73CFF192503E0274B1D683F231D40AE4206D210
:4010C000234BDA5D234B1A600520FFF72DFF1F4B9C4664442378DBB21F4A13601F4B52461A601F4B4A461A600520FFF77FFFAE420AD9174BDA5D174B1A600520FFF714FF25
:4011000002E00020FFF738FF0198FFF71BFF03B00CBC91469A46F0BDC0F1FF0FC1F1FF0FC2F1FF0FC3F1FF0FC4F1FF0FC5F1FF0FC6F1FF0FC7F1FF0FC8F1FF0FC9F1FF0F55
:40114000CAF1FF0FCBF1FF0FCCF1FF0FCDF1FF0F502100002CFF0B4028FF0B401CFF0B4020FF0B40034B1868C0231B02184000D00120704700010B4008B5FFF7DFFE044A24
:401180001368C02109020B431360FFF7DBFE08BD00010B4010B5FFF7D1FE08490A68084B1A408024E40122430A600A6813408022120213430B60FFF7C5FE10BD00010B40C7
:4011C000FF3FFFFF70B5061CFFF7B8FE041CFFF7C9FF002803D0FFF7DDFF012500E000250848331C0340084A106808490840184310601368012D01D1FFF7BEFF201CFFF77A
:40120000A1FE70BD0404040010020B40FBFBFBFF10B5244B1B685B0715D5234B1B685B070ED5224B9969042001401F4C22688A4322609A6982439A61DB68002B00D0984758
:401240000420FFF7BFFF174B1B685B0518D5164B1B685B0510D5154B99698022D2001140114802688A4302609969114A0A409A611B69002B00D098478020C000FFF7A2FF2B
:40128000084B1B685B030CD5074B1B685B0304D5064B5B69002B00D098478020C002FFF791FF10BD10020B409001002098020020FFFBFFFF0004000C014B18607047C04618
:4012C000080105400004000C014B18607047C046140105400004000C014B18607047C0460C01054038B5041C0D1CFFF727FEAC40024B1C60FFF726FE38BDC046080005406A
:4013000008B5FFF71BFE064A116801230B431360FFF718FE01201821FFF7E4FF08BDC04600000540014B18607047C0463801054010B50D4C8023DB04236023682360002094
:40134000FFF7B8FF236823600C22084B1A600020FFF7E8FF3122064B1A600648FFF7B2FF0120FFF7B7FF10BD000105402401054028010540FFFF000008B5064B1B78002B25
:4013800004D1FFF7D5FF0122024B1A70FFF7B8FF08BDC046B4020020F7B59C180023071C08268025019100922370237800982B432370BB689B6C9847019B984202D22378F4
:4013C000AB432370013E6D08002EEED12378F82B01D9F8232370F7BD70B5051C0E1C00242B789C4208D2AB68221C281C311C1B68FFF7D2FF0134F3E770BD38B5051C002448
:401400002B789C4219D2AA6813681B5DDB080F2B00D90F23D16BD268C95C1155AA68042B04D9936D906B211C012203E0936D906B211C002298470134E2E738BDF0B5041CC5
:40144000002687B063789E4262D2A3685A6C925D0392002A01D1013203921A6C925D019201992278914251D29A689B69515C0F221140B2000492002205910499019D5A50BB
:40148000019B5B000293039B019A9B189D423DD2A768E388A0885843FB68595D00F04AF93B68595D00F0B6F8059B5843194B40005A2802D95B084008FAE7BA6904991B0C97
:4014C0001B045350A36882085B6B01215855A368C008DB69029F5A550F22A36849421B6A5855A3685B6A5A55A368986AC1530021D86AC153186B9B68C1535B1919780135B4
:401500000A401A703B1C02330293BCE7013699E707B0F0BD0000FFFFF0B585684E002B6B925B9B191C8887B0141B0094AC6A1A80A45B6B6A0294EC6A5F5CA45B2B6A0394EF
:401540006C6B7F00645C5B180494AC680193645C1B780594009CE40FA4460F24251C6744009C3D40AC46E51764196C409C4203D2012B05D0013B00E00133FF273F2B00D882
:401580009F00019D2B7065460F2D29D0002D24D0BC4225D8059C029F24090094974200D9171C039D954200D2151C009A092A01D8141C01343A1C0A2C14D1EA1B934206D9C0
:4015C000049A92089A42924152429B1A00E001338268D26953543A1C04E0151C644601E0151C00246746836824015B6A5F5483689F6ABA53DA6A9B6895530F225B181D78F2
:401600002A401A7083689B6859180B781C430C7007B0F0BD002243088B4274D303098B425FD3030A8B4244D3030B8B4228D3030C8B420DD3FF22090212BA030C8B4202D3DD
:401640001212090265D0030B8B4219D300E0090AC30B8B4201D3CB03C01A5241830B8B4201D38B03C01A5241430B8B4201D34B03C01A5241030B8B4201D30B03C01A5241A4
:40168000C30A8B4201D3CB02C01A5241830A8B4201D38B02C01A5241430A8B4201D34B02C01A5241030A8B4201D30B02C01A5241CDD2C3098B4201D3CB01C01A52418309B9
:4016C0008B4201D38B01C01A524143098B4201D34B01C01A524103098B4201D30B01C01A5241C3088B4201D3CB00C01A524183088B4201D38B00C01A524143088B4201D3D0
:401700004B00C01A5241411A00D20146524110467047FFE701B5002000F0FCF802BDC0460029F7D003B5FFF775FF0EBC4243891A1847C04603460B437FD4002243088B42EB
:4017400074D303098B425FD3030A8B4244D3030B8B4228D3030C8B420DD3FF22090212BA030C8B4202D31212090265D0030B8B4219D300E0090AC30B8B4201D3CB03C01AB6
:401780005241830B8B4201D38B03C01A5241430B8B4201D34B03C01A5241030B8B4201D30B03C01A5241C30A8B4201D3CB02C01A5241830A8B4201D38B02C01A5241430A7B
:4017C0008B4201D34B02C01A5241030A8B4201D30B02C01A5241CDD2C3098B4201D3CB01C01A524183098B4201D38B01C01A524143098B4201D34B01C01A524103098B427C
:4018000001D30B01C01A5241C3088B4201D3CB00C01A524183088B4201D38B00C01A524143088B4201D34B00C01A5241411A00D201465241104670475DE0CA0F00D049426A
:40184000031000D34042534000229C4603098B422DD3030A8B4212D3FC22890112BA030A8B420CD3890192118B4208D3890192118B4204D389013AD0921100E08909C30989
:401880008B4201D3CB01C01A524183098B4201D38B01C01A524143098B4201D34B01C01A524103098B4201D30B01C01A5241C3088B4201D3CB00C01A524183088B4201D38C
:4018C0008B00C01A5241D9D243088B4201D34B00C01A5241411A00D20146634652415B10104601D34042002B00D54942704763465B1000D3404201B5002000F00BF802BDA7
:401900000029F8D003B5FFF715FF0EBC4243891A1847C0467047C046F0B55F4656464D464446F0B4051C061C080387B099464F00030BCC0F92469B467F0D019467D06C4BD5
:401940009F4236D080205B4640031843C0006B0F1843684B83469C4600239846EE00674400934B4649461D03C90F5B0052462D0B5B0D894600D16EE05D498B4264D08020A1
:401980005C4940038C4600210543ED00500F0543D20063444846FF187B1C9A46009B604002900B430F2B00D9ACE053489B00C3589F465B461D4300D082E0082300930023D7
:4019C0009B46023300269846CBE7029B01934346022B59D1012400250026019B1C40444B00212D030A0D12052D0B1543434A1B0515401D436D00E4076D082543301C291CDC
:401A000007B03CBC90469946A246AB46F0BD2B434ED05B46002B00D185E1584600F088FA021C2823291C9B1A161C5846D940083EB0400B1CB54003439B462E1C0023304F6C
:401A40000093BF1A98468CE7514629432ED10025002202219EE75146294323D0002D00D154E1281C00F064FA031C28215046C91A1A1CC8405146083A914095400A1C0543F1
:401A80001F480021C31A85E7032B00D1C2E1012B00D06DE14446019B00251C40E4B2002300269DE700250022012173E7032171E70423009300239B4601330026984650E7F3
:401AC0000C230093093B98464BE7802500242D030026074B84E74B46AB46161C0193884675E7029BAB46161C019388466FE7C046FF07000001FCFFFF80210000FFFF0F80D5
:401B00000DFCFFFF330C3604360C9C46331C140C1204120C53439846634653439946634663430193331C41466343090C4B445B18994505D980204002814601994944019138
:401B4000190C039141460904090C1B045B1804932B0C9846331C2D04290C4B43604600934346654658435E43009B4D431B0C9946AE194E448446B54203D980235B029946D3
:401B8000CC44350C2B1C0398634484460593009B36041B041B0CF3189C446046039058460504060C280C84465043351C81466046654344434846000C8346724314195C448E
:401BC000A24203D98022520293465D44220CAD184A461204120C24044046A41862464A437143464360460096464670438046100C84468844E044414505D9802149028C46E9
:401C0000009961440091019803998446614499429B415B4299460598434684461204120C1B049B1863449C46AB4683429B4140460A19CC44A2428941E344CC45B6415C46B5
:401C4000000C8046494276425B426418334398448C428941AB459B4149425B4219430D1C009B4544EE187602E50D2E43B346049B56021E43731E9E415B46D20D32436602B0
:401C80001643DB010AD50123334076081E435B46DB071E435B465B089B465746634BFB18002B5ADD720709D00F223240042A05D0321DB242B6417642B344161C5A46D2018B
:401CC00006D55A465A4B1A4080239346DB00FB18584A934234DD0124029B00251C400026554B7DE680205B460003034208D0054206D105432D032D0B4C46161C4E4B6FE62B
:401D00005D4605432D032D0B4B4B69E6504600F00FF9031C2033272B00DCA6E65546083885400022ACE6281C00F002F9021C2032272A00DC75E6083885400026AB467DE6B7
:401D40005A46F608520716435A4601245502029A5B052D0B5B0D144042E6384DED1B382D0ADD0124029B00251C400026002337E6019B5746029391E71F2D25DC304B321C01
:401D80009C466744BE405B46BB40371CEA407E1EB74113433B431E1C5B46EB401D1C730709D00F233340042B05D0331DB342B6417642AD191E1C2B0220D50124029B0025DF
:401DC0001C40002601230BE65A461E4BDB1BDA40131C202D1CD01C4A94465A466744BA40171C3E43721E96411E4307230025334007D00F2300253340042BD6D16B076D02B0
:401E00002D0B0124F6081E43029B1C400023E7E50027E6E780255B4601242D031D43019B2D0323401C1C2D0B034BD9E5FF030000FFFFFFFEFE070000FF07000002FCFFFF60
:401E40001E040000E2FBFFFF3E0400000B0330B5134C1A0B4B00051C5B0DC90F0020A34210DD104883420EDC80200F4C40030243E41A1F2C0ADD0D48C31ADA40131C48424F
:401E80004340581830BD0A4BC818FBE7281CE040084CA44663449A40131C0343EFE7C046FE0300001D0400003304000013040000FFFFFF7FEDFBFFFF38B5041E16D0C50F1C
:401EC00000D04442201C00F033F8174B1B1A0A2821DC021C211C153291400A1C0B21081AC4405B052403240B5B0D03E000250023002400220021101C24030A0D1205240B24
:401F000014430A4A1B0514401C436400ED0764082C43211C38BD0B3884405B052403240B5B0D0022E6E7C0461E040000FFFF0F801C2101231B04984201D3000C10391B0A4D
:401F4000984201D3000A08391B09984201D30009043902A2105C40187047C046040302020101010100000000000000000E4B70B500251E1C0D4CE41AA410A54204D0AB00CE
:401F8000F35898470135F8E700F01AF9084B00251E1C084CE41AA410A54204D0AB00F35898470135F8E770BDCC210000CC210000CC210000D4210000031C8218934202D039
:401FC00019700133FAE770470000000000300F40000400400F40000404300F4001310F4002330F4002400F4002410F4003420F400A430F4038803E4058045F011801B401DB
:40200000E2805304D4208B0497086C407008DC03190861028908A102B448B502C608D802E201EC080001010101020202020202000300000006000102070203040506070793
:40204000000000000000014004000140080001400C00014010000140080004400801044008020440080304400804044000000440000104400002044000030440000404400F
:40208000000102030405060708090A0B0C0000004000000001000000020000000400000080000000040000000800000010000000200000004000000080000000800000008F
:4020C00001000000000102030405060708090A0B0C00000001010101010101010101010101000000D8020020E802002070010020C80200200803002080200000D400002046
:40210000B00300207403002084030020DC03002094030020C003002004040020C002002040210000C4200000D4200000090A0000E907000059060000A9070000E1090000B6
:4021400001010102020202040404040404040404030405060708090A0B0C0E0F101112131415161718191B1C1D1E1F2021222325262728292A2B2E2F303132333435000040
:40218000041B0000E21A0000E21A0000D61A0000CA190000CA190000CA1A0000D61A0000CA190000CA1A0000CA190000D61A0000CE190000CE190000CE190000E41C00002F
:4021C000F8B5C046F8BC08BC9E4670471D020000C1030000F8B5C046F8BC08BC9E467047F5010000F8210000C8000020D000000080020000000000000000000000000440E3
:40220000030000000000FF0F0000FF0F0000FF0F0000FF0F0000FF0F0000FF0F0000FF0F0000FF0F0000FF0F0000FF0F0000FF0F0000FF0F0000FF0FFF1F0000080004407B
:4022400008010440080104400801044008010440080204400802044008020440080204400802044008020440080004400803044014141414141414141414141414000000B7
:40228000C8C8C8C8C8C8C8C8C8C8C8C8C80000001E1E1E1E1E1E1E1E1E1E1E1E1E010000020202020202020202020202020000000000E02EC05D00001800000000366E016D
:4022C00004040400000000000000000000000000000000000000000000000000000000000000000000000000000000000000000000000000000000000000000000000000D2
:40230000000000000000000000000000000000000000000000000000000000000000000000000000000000000000000000000000000000000000000000000000000000009D
:40234000000000000000000000000000000000000000000000000000000000000000000000000000000000000000000000000000000000000000000000000000000000005D
:40238000000000000000000000000000000000000000000000000000000000000000000000000000000000000000000000000000000000000000000000000000000000001D
:4023C00000000000000000000000000000000000000000000000000000000000000000000000000000000000000000000000000000000000000000000000000000000000DD
:0200000490303A
:02000000FDB34E
:0200000490402A
:200000000000000000000000000000000000000000000000000000000000000000000000E0
:0200000490501A
:0C000000000204A61193110104B10F4688
:0200000490600A
:0100000001FE
:00000001FF