:400000000010002011000000BD030000BD03000010B500F0DBF9C04670B51C4C23688022D20213432360182000F0E8FF2268184B13402360174A184B1A601122174B1A60EA
:400040000F32174B1A60103A164B1A602032164B1A6080221206154B1A6000252560144A144B1A60144A154B1A60154A154B1A60154A164B1A601649092000F07DFF0920D4
:4000800000F064FF134B1D6070BDC04600010B40FFFFFBFF0600008004010B400802024014020240180202402002024008010B40FE00008000000240FE0000C0400002400D
:4000C0000100008080000240CF000080040002400D1200000C020B4010B572B600240FE035486200131959000B00411889881A5AC31858880004104300F034F90134E4B269
:40010000012CEDD92C4801000C313C3000F010F9C0229200294B1A60EE221202284B1A609922284B1A6099231B04274A13608A21C903264A1160264A1360264A1360264A4D
:40014000136080229205254B1A6025490B783C22934314221343DBB20B70224A117816230B43DBB2137004221F4B1A607D32FF321E4B1A6087231E4A13601E4A13607533CF
:400180001D4A13601D4A1360F93B1D4A1360D82109011C4A11601C4A13600E221B4B1A601B4A1C4B1A6006221B4B1A60FFF734FF00F0FEF810BDC046E81A00000000014047
:4001C0000C0001401000014000500F4008500F4010500F4020500F4030500F4038500F4001700F4000700F40000004400800044000010440180104400002044018020440B2
:4002000000030440080304401803044000040440310C0000080404401804044010B5064C2378002B07D1054B002B02D0044800E000BF0123237010BDA00100200000000062
:40024000E41A0000084B10B5002B03D00749084800E000BF07480368002B00D110BD064B002BFBD09847F9E700000000A4010020E41A0000C00000200000000070B562B6C2
:4002800000F028FB01F09AF801F074F800F07EFB00F0AAFC00F078FA00F03CF90028FBD100F0B4FC1C4B18601C4B1B68FF2B08D11B4B186000221B4B1A60013001F08EF8DD
:4002C00015E0FF2806D1002001F088F80022164B1A600CE098420AD00022124B1A60013001F07CF80C4B1B6801330F4A13600A4B1A680A4B1A600B4C0C4D2368E81A00F0A1
:40030000E7FF2368FA229200944663442360AB42BEDD044B1D60BBE7500200204C0200204402002058020020BC010020FFFF0000F0B50025002711E0BB00C658F3B2FF2288
:40034000964308E06A008A181478A419527822700135013BDBB2002BF4D10137062FEBD9F0BDC04610B50A00002101F0B3FB10BD0C4B1B68002803D080221206134301E016
:400380005B005B08074A1360074B1B68002803D080229204134301E0044A1340024A13607047C04680031A4008010B40FFFFFFFD10B50120FFF7DCFF10BDC04610B501F0F4
:4003C0005DFB03680C2B00D1FEE7FEE770B50F4E0F4D13E029686B68AC68002202E001C901C30432A242FAD1E868002202E0002102C304328242FAD11035013E002EE9D13D
:4004000001F042FBFFF73AFFFEE7C04601000000981C000010B500230AE0032B03D89A000949505800E009489900094A885001332F2BF2D9FFF750FE8022D20511680123A8
:400440000B43136010BDC04600000000BD0300000000002070B516480368DBB2154A13700F24A3431900144D2B780F2213400B43E13293432A78A243134303600F4A104BC6
:400480001A60104A104B1A60104A1168104B0B40C021C9000B4313600F2000F061FD0D490F2000F069FD03210F2000F077FD70BD00FF08405C02002062F1FF0F000200014A
:4004C000080008400008A0010400084010000140FFF0FFFF890C000010B500F025FD00F007FD0021002000F00BFD0021002000F023FD00F00FFD00F0F1FC044A13680449A0
:400500000B4313600F2000F021FD10BD0400084000100880024B1878012318407047C046C00100204000024B181880887047C046C0010020F8B5104F3E5C3818037B5D00E1
:400540005D19EDB29B00DCB200F0C0FFB300FB189E6932680F21A1408A4311000422A2400A43DC6A23680721A9408B432360326000F0B0FFF8BDC046401B0000F8B5194A59
:40058000145C13181F7BB900C9B27D007D19EDB2154B185CA300D3189E6933680F228A4093433360022800D10020012801D1002600E0062600F08AFFA4000A4B1C19E16A7E
:4005C0000B680722AA4093431A003300AB4013430B6000F07FFF216C0B680122BA4093430B60F8BD401B00008C02002010B5002403E02000FFF7C2FF01340B2CF9D910BD6E
:40060000044A11684002C023DB001840084310607047C04604000840CA0807231940063B8B40825C134201D0012000E00020704710B504000134E4B20C2C06D0210004488B
:400640000430FFF7E9FF0028F4D0200010BDC046C4000020F8B50400354B1B1854229D5CAA00344BD65801003348FFF7D5FF334B9E4203D88640FF231B041E43304B185DA4
:40068000013880B2002100F03BFC2E4B185D013880B2002100F050FC2B4B5B7F002B1ED00F2000F05DFC294B18688023984340220243244B1B5D22490F5D7B43DBB21903B2
:4006C000CB1A1904AD001B4BEB587B43994201D2C02202431D4B1A600F2000F037FC0F2000F03EFC1A4801681A4B19401A4B1B5D1A4A125D120413430B430360134F3D6825
:40070000174B1D40174B1D430F2000F01FFC2000FFF710FF00F0DAFE04003D60002000F0CBFE114B1E60200000F0D4FEF8BDC046401B0000C400002060020020FFFFFEFF64
:400740009802002068020020C0010020040008400800084000FF80FF7402002080020020FF1FDFFF20E020000C00084010B5054B00221A70C2B21A7781221A70FFF76AFF40
:4007800010BDC046C001002010B50C4C00232370FF332377207FC0B2FFF74AFF2077237FDBB20B2B08D8217801230B43DBB22370207FC0B2FFF74EFF10BDC046C001002087
:4007C00070B50500184B1C68A4B24300174AD3189C80174B1B1854229B5C9B00154A9A58154B9A4208D801001448FFF715FF6B000E4AD31804419C802800FFF7BFFE0F205D
:4008000000F0AEFB0E4A11680E4B0B40A02109020B4313600C4A11680C4B0B4013600F2000F094FB70BDC0460C000840C0010020401B0000C4000020FFFFFEFF6002002067
:4008400004000840FF1FDFFF0800084000FF80FF10B5CC0807231940063B8B40DBB2002A04D0041922781343237003E0041922789A43227010BDC04670B5060000240025BF
:400880000BE03000FFF772FFFFF744FE0128FBD03000FFF747FE24180135002DF1D0A0B270BDC046014B19547047C0468C02002010B5002404E000212000FFF7F3FF0134EB
:4008C0000B2CF8D9FFF7C6FD0020FFF799FEFFF78DFE10BD10B50B4B9B7F002B04D1FFF7E7FF0122074B9A77FFF7F6FD00F092FA0122044BDA77044A13688021C9030B43F9
:40090000136010BDC001002004000840F0B5002714E00C4BDE5D0C4BDB5DF6181A00002404E08D5CAC4200D22C000132B242F8D301E0CC540133B342FBD301378742E8D3BE
:40094000F0BDC046D01B0000D41B000010B54300054A9A5A05495A520818002101762424015503495A5210BDC4010020E0010020B802002010B50400FFF7F8FEFFF7CAFD58
:400980000028FBD12000FFF7E1FF10BD10B5002403E02000FFF7EEFF01340B2CF9D910BD70B5094D24352D180026FF20002308E0EC5C944203D9A64201D226001800013316
:4009C000DBB28B42F4D370BDE0010020F0B583B004000192009308AB1878344B24335918002C02D0661EF6B200E00026631CDDB20B5D9C462D4B383362465A70002C07D13B
:400A00002A4B002638229E544A5D38339A7012E0019A013A944207D1895D244B38229954383300229A7006E08E5D204B38229E544A5D38339A7038231C4AD35C834204D9D4
:400A40001B1A382219498B5403E000213823174AD154164A383253781B1ADBB253709278904204D2101A114A3832907003E000210E4A383291700D490A0038329278382013
:400A8000095C501AC9188918000200F00BFF240200196B4600255D5F6843FE23DB019C466044000CC0B203B0F0BDC046E0010020884202D9013880B203E0884201D2013044
:400AC00080B27047F0B54F464646C0B483B00400384B1B5C9946384B4A469B5C98464200364BD65A364B1B7C002B07D0354D1700515B3000FFF7DCFF06007853E1B22F4AAB
:400B0000314800F0ABFD6300304A9A5A964206D300212F4B1955B51AADB2012702E0951BADB20027002F16D12A4B49465B5C9D4211D9274B1B5D224A12191279934206D357
:400B40002000FFF703FF0022214B1A5513E001331F4A13550FE010021C4B9C4619190B7E18433018801A020A63006646F25208760022174B1A5543466A46D380D688B54275
:400B80000ED9002F0CD0FF2D05D9104B1C19FF222423E25409E00D4B1C192423E55404E00A4B1C1900222423E25403B00CBC90469946F0BD941B0000A4020020C4010020D1
:400BC000FC000020B802002044030020E0010020A8020020B402002010B5040000F0A2F82000FFF76FFF10BD10B5002409E021000548FFF711FD002802D02000FFF7ECFF14
:400C000001340B2CF3D910BDC800002030B583B00400194B1B181D7D184B1A5C0C210020FFF7BEFEFF281FD0154B1B5D009390231B010C220021FFF7C9FE010080B26B1C8C
:400C4000DBB20D4A5219127D002A06D10A4AD3181975551901232B750BE0074CE418217DFFF726FF207504E0034B5D1900232B75044803B030BDC046FC000020D40200209F
:400C8000A4020020FFFF000010B50F2000F068F901221E4B1A601E4B1878C0B2FFF790FD1C4B1B785BB2002B05DA1A4A137801218B43137026E0164C2078C0B2FFF7B8FCA8
:400CC00020702378DBB20B2B05D8114B1878C0B2FFF7C0FC16E00F4B1A7801218A431A701B785B060ED500220B4B1A7006E00B4AD15C0B4AD1540133074A1370064B1B7817
:400D0000012BF4D90F2000F021F910BD14000840DC010020C00100201B02002064020020C800002070B582B0154B1C5C154EC1B2154D009533002200144800F00DFD335D98
:400D4000295D134A1155DB2B03D8DB08114A135514E0EC2B03D81B090E4A13550EE0F42B03D85B090B4A135508E0F92B03D89B09084A135502E00022064B1A5502B070BDE8
:400D8000941B0000D4020020A402002044030020B4020020D0020020024A136840218B431360704704000840044A1168044B0B40802189000B4313607047C04608000840D4
:400DC000FFFCFFFC70B5002208E00D498B5C5D080C4CA55401335B088B54013203789A42F3D30F2000F0BCF8074A1168074B0B4007490B4313600F2000F0A8F870BDC046D8
:400E0000740200208002002008000840FFFCFFFC0002000170B5274B0C221A70012159709A700C32DA80244A9A80244A9A60FFF7B3FF002304E099002148224A885001333C
:400E40001C4A52789342F6D3002306E004211E4AD15402391D4AD15401330B2BF6D9FFF7A3FF1B4E134C3100200000F057FB194D29000120FFF74AFD200000F060FB01227B
:400E8000154B1A703100200000F048FB29000120FFF73CFD200000F073FB2000FFF792FF002403E02000FFF73DFF01340B2CF9D970BDC0464403002066020000D81B00009A
:400EC0000000FF0FC400002068020020980200209A0D000074020020DD010020034A1368802109060B4313607047C04600000240024A13685B005B08136070470000024058
:400F0000034A13681B0C1B04034313607047C04600000240034A1368802109060B4313607047C04640000240024A13685B005B081360704740000240034A13681B0C1B0434
:400F4000034313607047C046400002401F2318401E3B8340014A13607047C04600E100E01F2318401E3B8340014A13607047C04680E100E001BE704770B504000D001F2822
:400F800002D90020FFF7F6FF1034A40080239B059C4664442068256070BDC04670B504000E00032902D90020FFF7E4FF1F2C02D90020FFF7DFFF03252540ED00063500F060
:400FC00085FAA408A400074B9C46644421680323AB4099430B003100A9401943216000F079FA70BD00E400E010B5034B1B7B584300F062FA10BDC04620010020F0B5574694
:401000004E46C0B483B0040000F060FA0190E71E2D2F74D83F4B1B78DBB29C4208D83E4B1B78DBB29A463D4B1B78DBB2994631E03B4B1B78DBB29C4208D83A4B1B78DBB257
:401040009A46394B1B78DBB2994623E0374B1B78DBB29C4208D8364B1B78DBB29A46354B1B78DBB2994615E0334B1B78DBB29C4208D8324B1B78DBB29A46314B1B78DBB240
:40108000994607E02F4B1B78DBB29A462E4B1B78DBB299462D4BDE5D2F2E09D92A2C07D919222B4B1A60052000F006FA192503E0274B1D683F231D40B54206D9234BDA5DBE
:4010C000234B1A60052000F0F7F91F4B9C4664442378DBB21F4A13601F4B52461A601F4B4A461A600520FFF77FFFB5420AD2174BDA5D174B1A60052000F0DEF902E000204C
:40110000FFF738FF019800F0E5F903B00CBC91469A46F0BDC0F1FF0FC1F1FF0FC2F1FF0FC3F1FF0FC4F1FF0FC5F1FF0FC6F1FF0FC7F1FF0FC8F1FF0FC9F1FF0FCAF1FF0FD0
:40114000CBF1FF0FCCF1FF0FCDF1FF0F441C00002CFF0B4028FF0B401CFF0B4020FF0B40034B1868C0231B02184000D00120704700010B4010B500F0A9F9044A1368C021DB
:4011800009020B43136000F0A5F910BD00010B4010B500F09BF908490A68084B1A408024E40122430A600A6813408022120213430B6000F08FF910BD00010B40FF3FFFFFA2
:4011C00070B5050000F082F90400FFF7C9FF002803D0FFF7DDFF012100E0002108482840084A1568084B2B40184310601368012901D1FFF7BFFF200000F06CF970BDC046C5
:401200000404040010020B40FBFBFBFF10B5244B1B685B0715D5234B1B685B070ED5224BD969042001401F4C22688A432260DA698243DA611B69002B00D098470420FFF709
:40124000BFFF174B1B685B0518D5164B1B685B0510D5154BD9698022D2001140114802688A430260D969114A0A40DA615B69002B00D098478020C000FFF7A2FF084B1B686F
:401280005B030CD5074B1B685B0304D5064B9B69002B00D098478020C002FFF791FF10BD10020B40340100201C020020FFFBFFFF0004000C014B18607047C0460801054038
:4012C0000004000C014B18607047C046140105400004000C014B18607047C0460C01054070B504000D0000F0F1F8AC40024B1C6000F0F0F870BDC0460800054010B500F04F
:40130000E5F8064A116801230B43136000F0E2F818210120FFF7E4FF10BDC04600000540014B18607047C0463801054010B50D4C8023DB042360236823600020FFF7B8FF10
:40134000236823600C22084B1A600020FFF7E8FF3122064B1A600648FFF7B2FF0120FFF7B7FF10BD000105402401054028010540FFFF000010B5064B1B78002B04D1FFF7FF
:40138000D5FF0122024B1A70FFF7B8FF10BDC0463C02002010B500F07DF810BD10B500F02BF810BD10B5044A1368802109060B431360FFF7EFFF10BD0000064010B5064BD9
:4013C0001B78002B04D1FFF7E9FF0122024B1A70FFF7E8FF10BDC0463E020020044B1B680F221340082BF9D0024B18607047C0460802064040020640134A144B1A6000236D
:40140000134A13601349144A1160144A14490A6007201449086014490B6006381349086013490A60134A1360134A1360134A1360134A1360134A1360134A1360134A136060
:401440001268134B1A8070470B000002000006404000064001000A004800064007000080000306400403064010030640440006400002064004020640880E0640C80E064045
:40148000480F0640080F0640C80F0640880F06404002002005490B68F0229343603A13430B60034B1A88034B1A6070471000014040020020880F06400230800804D0C0463F
:4014C0000138FDD1C046C046C0467047EFF3108072B6704780F310887047C046F7B59C180023071C08268025019100922370237800982B432370BB689B6C9847019B984220
:4015000002D22378AB432370013E6D08002EEED12378F82B01D9F8232370F7BD70B5051C0E1C00242B789C4208D2AB68221C281C311C1B68FFF7D2FF0134F3E770BD38B5DC
:40154000051C00242B789C4219D2AA6813681B5DDB080F2B00D90F23D16BD268C95C1155AA68042B04D9936D906B211C012203E0936D906B211C002298470134E2E738BD04
:40158000F0B5041C002687B063789E4262D2A3685A6C925D0392002A01D1013203921A6C925D019201992278914251D29A689B69515C0F221140B2000492002205910499FD
:4015C000019D5A50019B5B000293039B019A9B189D423DD2A768E388A0885843FB68595D00F060F93B68595D00F0D2F8059B5843194B40005A2802D95B084008FAE7BA69A0
:4016000004991B0C1B045350A36882085B6B01215855A368C008DB69029F5A550F22A36849421B6A5855A3685B6A5A55A368986AC1530021D86AC153186B9B68C1535B1975
:40164000197801350A401A703B1C02330293BCE7013699E707B0F0BD0000FFFFF0B585684E002B6B925B9B191C8887B0141B0094AC6A1A80A45B6B6A0294EC6A5F5CA45B13
:401680002B6A03946C6B7F00645C5B180494AC680193645C1B780594009CE40FA4460F24251C6744009C3D40AC46E51764196C409C4203D2012B05D0013B00E00133FF2757
:4016C0003F2B00D89F00019D2B7065460F2D29D0002D24D0BC4225D8059C029F24090094974200D9171C039D954200D2151C009A092A01D8141C01343A1C0A2C14D1EA1BF1
:40170000934206D9049A92089A42924152429B1A00E001338268D26953543A1C04E0151C644601E0151C00246746836824015B6A5F5483689F6ABA53DA6A9B6895530F2204
:401740005B181D782A401A7083689B6859180B781C430C7007B0F0BD70B58068446BC069655C405CFF213F2801D88100C9B246B2FF24002E01DB4000C4B28D4201D9291CE5
:401780006C08012081439954049B9C5470BD0000002243088B4274D303098B425FD3030A8B4244D3030B8B4228D3030C8B420DD3FF22090212BA030C8B4202D31212090240
:4017C00065D0030B8B4219D300E0090AC30B8B4201D3CB03C01A5241830B8B4201D38B03C01A5241430B8B4201D34B03C01A5241030B8B4201D30B03C01A5241C30A8B42B8
:4018000001D3CB02C01A5241830A8B4201D38B02C01A5241430A8B4201D34B02C01A5241030A8B4201D30B02C01A5241CDD2C3098B4201D3CB01C01A524183098B4201D330
:401840008B01C01A524143098B4201D34B01C01A524103098B4201D30B01C01A5241C3088B4201D3CB00C01A524183088B4201D38B00C01A524143088B4201D34B00C01ACA
:401880005241411A00D20146524110467047FFE701B5002000F0F0F802BDC0460029F7D076E7704703460B437FD4002243088B4274D303098B425FD3030A8B4244D3030BAF
:4018C0008B4228D3030C8B420DD3FF22090212BA030C8B4202D31212090265D0030B8B4219D300E0090AC30B8B4201D3CB03C01A5241830B8B4201D38B03C01A5241430B7B
:401900008B4201D34B03C01A5241030B8B4201D30B03C01A5241C30A8B4201D3CB02C01A5241830A8B4201D38B02C01A5241430A8B4201D34B02C01A5241030A8B4201D3FB
:401940000B02C01A5241CDD2C3098B4201D3CB01C01A524183098B4201D38B01C01A524143098B4201D34B01C01A524103098B4201D30B01C01A5241C3088B4201D3CB007F
:40198000C01A524183088B4201D38B00C01A524143088B4201D34B00C01A5241411A00D201465241104670475DE0CA0F00D04942031000D34042534000229C4603098B4295
:4019C0002DD3030A8B4212D3FC22890112BA030A8B420CD3890192118B4208D3890192118B4204D389013AD0921100E08909C3098B4201D3CB01C01A524183098B4201D3D9
:401A00008B01C01A524143098B4201D34B01C01A524103098B4201D30B01C01A5241C3088B4201D3CB00C01A524183088B4201D38B00C01A5241D9D243088B4201D34B0037
:401A4000C01A5241411A00D20146634652415B10104601D34042002B00D54942704763465B1000D3404201B5002000F005F802BD0029F8D016E770477047C046014B1868D7
:401A80007047C046980100200E4B70B500251E000D4CE41AA410A54204D0AB00F35898470135F8E700F0E6F8084B00251E00084CE41AA410A54204D0AB00F358984701350F
:401AC000F8E770BD801C0000801C0000801C0000881C000003008218934202D019700133FAE770470000000000300F40000400400F40000438803E4058045F011801B401F3
:401B0000E2805304D4208B0497086C407008DC03190861028908A102B448B502C608D802E201EC0804300F4001310F4002330F4002400F4002410F4003420F400A430F4002
:401B40000101010102020202020203030001020702030405060700010000014004000140080001400C00014010000140080004400801044008020440080304400804044036
:401B80000000044000010440000204400003044000040440000000000000000000000000010000000200000004000000800000000400000008000000100000002000000004
:401BC000400000008000000001000000020000000C000000000000007402002080020020140100206802002098020020941B0000C400002008030020D8020020E4020020A7
:401C00002C030020F0020020140300205003002060020020341C0000D41B0000D01B0000790800005506000025050000190600005108000001010102020202040404040450
:401C400004040404030405060708090A0B0C0E0F101112131415161718191B1C1D1E1F2021222325262728292A2B2E2F3031323334354300F8B5C046F8BC08BC9E4670475B
:401C80004502000015040000F8B5C046F8BC08BC9E4670471D020000A81C0000C0000020E0000000C0010000000000000000FF0FFF0F000008010440080104400801044097
:401CC000080104400802044008020440080204400802044008020440080204400803044008030440010000001E1E1E1E1E1E1E1E1E1E1E1E010000000100000002020202B2
:401D00000202020202020202010000000000E02EC05D00001800000000366E010404040000000000000000000000000000000000000000000000000000000000000000009E
:401D4000721C0000000000000000000000000000000000000000000000000000000000000000000000000000000000000000000000000000000000000000000000000000D5
:401D800038010020000000000000000000000000000000000000000000000000000000000000000000000000000000000000000000000000000000000000000000000000CA
:401DC00000000000000000000000000000000000000000000000000000000000000000000000000000000000000000000000000000000000000000000000000000000000E3
:401E000000000000000000000000000000000000000000000000000000000000000000000000000000000000000000000000000000000000000000000000000000000000A2
:401E40000000000000000000000000000000000000000000000000000000000000000000000000000000000000000000000000000000000000000000000000000000000062
:401E80000000000000000000000000000000000000000000000000000000000000000000000000000000000000000000000000000000000000000000000000000000000022
:0200000490303A
:02000000442199
:0200000490402A
:200000000000000000000000000000000000000000000000000000000000000000000000E0
:0200000490501A
:0C000000000204A61193110104AF55B4D6
:0200000490600A
:0100000001FE
:00000001FF