:400000000010002011000000090400000904000010B500F001FAC04670B51C4C23688022D20213432360182001F006F92268184B13402360174A184B1A601122174B1A6010
:400040000F32174B1A60103A164B1A602032164B1A6080221206154B1A6000252560144A144B1A60144A154B1A60154A154B1A60154A164B1A601649092001F09BF80920BC
:4000800001F082F8134B1D6070BDC04600010B40FFFFFBFF0600008004010B400802024014020240180202402002024008010B40FE00008000000240FE0000C040000240F5
:4000C0000100008080000240CF00008004000240491400000C020B4010B572B600240FE035486200131959000B00411889881A5AC31858880004104300F05AF90134E4B205
:40010000012CEDD92C4801000C313C3000F036F9C0229200294B1A60EE221202284B1A609922284B1A6099231B04274A13608A21C903264A1160264A1360264A1360264A27
:40014000136080229205254B1A6025490B783C22934314221343DBB20B70224A117816230B43DBB2137004221F4B1A607D32FF321E4B1A6087231E4A13601E4A13607533CF
:400180001D4A13601D4A1360F93B1D4A1360D82109011C4A11601C4A13600E221B4B1A601B4A1C4B1A6006221B4B1A60FFF734FF00F024F910BDC046E02E00000000014014
:4001C0000C0001401000014000500F4008500F4010500F4020500F4030500F4038500F4001700F4000700F40000004400800044000010440180104400002044018020440B2
:4002000000030440080304401803044000040440310C0000080404401804044010B5064C2378002B07D1054B002B02D0044800E000BF0123237010BDA00100200000000062
:40024000DC2E0000084B10B5002B03D00749084800E000BF07480368002B00D110BD064B002BFBD09847F9E700000000A4010020DC2E0000C00000200000000070B582B090
:4002800062B600F0DFFB00F01FF900F035FF00F039FC00F071FD00F02FFB00F0F3F90028FBD100F085FD04002A4B18602A4D286802F0E2FC294A2A4B02F022FA0090019171
:4002C000200002F097FC0022264B01F003FF02F027FD02F0D1FC009A019B01F0CFFB02F01FFD2860204B1B68FF2B08D11F4B1C6000221F4B1A60601C00F0F6F815E0FF2C20
:4003000006D1002000F0F0F800221A4B1A600CE09C420AD00022164B1A60601C00F0E4F80C4B1B680133134A13600A4B1A680E4B1A600F4C104D2368E81A00F08BFE236833
:40034000FA229200944663442360AB42A1DD084B1D609EE75402002044020020CDCCCCCCCCCCEC3F0000244050020020480200205C020020BC010020FFFF0000F0B50025D8
:40038000002711E0BB00C658F3B2FF22964308E06A008A181478A419527822700135013BDBB2002BF4D10137062FEBD9F0BDC04610B50A00002102F089FD10BD0C4B1B6832
:4003C000002803D080221206134301E05B005B08074A1360074B1B68002803D080229204134301E0044A1340024A13607047C04680031A4008010B40FFFFFFFD10B5012022
:40040000FFF7DCFF10BDC04610B502F033FD03680C2B00D1FEE7FEE770B50F4E0F4D13E029686B68AC68002202E001C901C30432A242FAD1E868002202E0002102C30432C4
:400440008242FAD11035013E002EE9D102F018FDFFF714FFFEE7C046010000001431000010B500230AE0032B03D89A000949505800E009489900094A885001332F2BF2D983
:40048000FFF72AFE8022D205116801230B43136010BDC04600000000090400000000002010B500F07DF810BD10B500F02BF810BD10B5044A1368802109060B431360FFF7B6
:4004C000EFFF10BD0000064010B5064B1B78002B04D1FFF7E9FF0122024B1A70FFF7E8FF10BDC046C0010020044B1B680F221340082BF9D0024B18607047C04608020640C5
:4005000040020640134A144B1A600023134A13601349144A1160144A14490A6007201449086014490B6006381349086013490A60134A1360134A1360134A1360134A1360FE
:40054000134A1360134A1360134A13601268134B1A8070470B000002000006404000064001000A004800064007000080000306400403064010030640440006400002064028
:4005800004020640880E0640C80E0640480F0640080F0640C80F0640880F0640C201002005490B68F0229343603A13430B60034B1A88034B1A60704710000140C201002079
:4005C000880F064070B516480368DBB2154A13700F24A3431900144D2B780F2213400B43E13293432A78A243134303600F4A104B1A60104A104B1A60104A1168104B0B40BA
:40060000C021C9000B4313600F2000F0C7FD0D490F2000F0CFFD03210F2000F0DDFD70BD00FF08406002002062F1FF0F00020001080008400008A00104000840100001401E
:40064000FFF0FFFF250E000010B500F08BFD00F06DFD0021002000F071FD0021002000F089FD00F075FD00F057FD044A136804490B4313600F2000F087FD10BD0400084034
:4006800000100880024B1878012318407047C046C40100204000024B181880887047C046C4010020F8B5104F3E5C3818037B5D005D19EDB29B00DCB200F024FFB300FB1858
:4006C0009E6932680F21A1408A4311000422A2400A43DC6A23680721A9408B432360326000F014FFF8BDC046382F0000F8B5194A145C13181F7BB900C9B27D007D19EDB200
:40070000154B185CA300D3189E6933680F228A4093433360022800D10020012801D1002600E0062600F0EEFEA4000A4B1C19E16A0B680722AA4093431A003300AB401343CA
:400740000B6000F0E3FE216C0B680122BA4093430B60F8BD382F00009002002010B5002403E02000FFF7C2FF01340B2CF9D910BD044A11684002C023DB0018400843106089
:400780007047C04604000840CA0807231940063B8B40825C134201D0012000E00020704710B504000134E4B20C2C06D0210004480430FFF7E9FF0028F4D0200010BDC046F3
:4007C000C4000020F8B50400354B1B1854229D5CAA00344BD65801003348FFF7D5FF334B9E4203D88640FF231B041E43304B185D013880B2002100F0A1FC2E4B185D0138D4
:4008000080B2002100F0B6FC2B4B5B7F002B1ED00F2000F0C3FC294B18688023984340220243244B1B5D22490F5D7B43DBB21903CB1A1904AD001B4BEB587B43994201D27A
:40084000C02202431D4B1A600F2000F09DFC0F2000F0A4FC1A4801681A4B19401A4B1B5D1A4A125D120413430B430360134F3D68174B1D40174B1D430F2000F085FC20005A
:40088000FFF710FF00F03EFE04003D60002000F02FFE114B1E60200000F038FEF8BDC046382F0000C400002064020020FFFFFEFF9C0200206C020020C40100200400084005
:4008C0000800084000FF80FF7802002084020020FF1FDFFF20E020000C00084010B5054B00221A70C2B21A7781221A70FFF76AFF10BDC046C401002010B50C4C002323709D
:40090000FF332377207FC0B2FFF74AFF2077237FDBB20B2B08D8217801230B43DBB22370207FC0B2FFF74EFF10BDC046C401002070B50500184B1C68A4B24300174AD31892
:400940009C80174B1B1854229B5C9B00154A9A58154B9A4208D801001448FFF715FF6B000E4AD31804419C802800FFF7BFFE0F2000F014FC0E4A11680E4B0B40A021090290
:400980000B4313600C4A11680C4B0B4013600F2000F0FAFB70BDC0460C000840C4010020382F0000C4000020FFFFFEFF6402002004000840FF1FDFFF0800084000FF80FF30
:4009C00010B5CC0807231940063B8B40DBB2002A04D0041922781343237003E0041922789A43227010BDC04670B50600002400250BE03000FFF772FFFFF744FE0128FBD0A6
:400A00003000FFF747FE24180135002DF1D0A0B270BDC046014B19547047C0469002002010B5002404E000212000FFF7F3FF01340B2CF8D9FFF7C6FD0020FFF799FEFFF7AF
:400A40008DFE10BD10B50B4B9B7F002B04D1FFF7E7FF0122074B9A77FFF7F6FD00F086FA0122044BDA77044A13688021C9030B43136010BDC401002004000840F0B50027AA
:400A800014E00C4BDE5D0C4BDB5DF6181A00002404E08D5CAC4200D22C000132B242F8D301E0CC540133B342FBD301378742E8D3F0BDC046C82F0000CC2F000010B54300C9
:400AC000064A9A5A06495A520818002101762424015504495A5204495A5210BDC8010020E4010020BC020020D802002010B50400FFF7F4FEFFF7C6FD0028FBD12000FFF768
:400B0000DDFF10BD10B5002403E02000FFF7EEFF01340B2CF9D910BD70B5094D24352D180026FF20002308E0EC5C944203D9A64201D2260018000133DBB28B42F4D370BD54
:400B4000E4010020F0B583B004000192009308AB1878344B24335918002C02D0661EF6B200E00026631CDDB20B5D9C462D4B383362465A70002C07D12A4B002638229E541C
:400B80004A5D38339A7012E0019A013A944207D1895D244B38229954383300229A7006E08E5D204B38229E544A5D38339A7038231C4AD35C834204D91B1A382219498B546A
:400BC00003E000213823174AD154164A383253781B1ADBB253709278904204D2101A114A3832907003E000210E4A383291700D490A00383292783820095C501AC918891811
:400C0000000200F04FFE240200196B4600255D5F6843FE23DB019C466044000CC0B203B0F0BDC046E401002010B540188018032100F0AEFD80B210BDF0B55F4656464D46A1
:400C40004446F0B483B004003D4B1B5C99463D4B4A469B5C984642003B4BD65A3B4B1B7D002B0FD03A4F1500D35B9B46394B9A46D25A59463000FFF7D7FF53465A46EA52D7
:400C8000EE530600E1B2304A334800F003FD6300324A9A5A964206D30021314B1955B51AADB2012702E0951BADB20027002F16D12C4B49465B5C9D4211D9294B1B5D234A83
:400CC0001219127A934206D32000FFF7F7FE0022234B1A5513E00133214A13550FE010021E4B9C4619190B7E18433018801A020A63006646F25208760022194B1A554346EC
:400D00006A46D380D688B5420ED9002F0CD0FF2D05D9124B1C19FF222423E25409E00F4B1C192423E55404E00C4B1C1900222423E25403B03CBC90469946A246AB46F0BD42
:400D40008C2F0000A8020020C8010020FC000020BC020020D80200205C030020E4010020AC020020B802002010B5040000F0A8F82000FFF761FF10BD10B5002409E0210056
:400D80000548FFF701FD002802D02000FFF7ECFF01340B2CF3D910BDC8000020884202D9013880B203E0884201D2013080B2704730B583B00400184B1A18157E1A5C0C2179
:400DC0000020FFF7A9FEFF281FD0144B1B5D009390231B010C220021FFF7B4FE010080B26B1CDBB20C4A5219127E002A06D10A4AD3181976551901232B760BE0064CE4181D
:400E0000217EFFF7CBFF207604E0034B5D1900232B76034803B030BDFC000020A8020020FFFF000010B50F2000F0B8F901221E4B1A601E4B1878C0B2FFF77AFD1C4B1B7815
:400E40005BB2002B05DA1A4A137801218B43137026E0164C2078C0B2FFF7A2FC20702378DBB20B2B05D8114B1878C0B2FFF7AAFC16E00F4B1A7801218A431A701B785B06DF
:400E80000ED500220B4B1A7006E00B4AD15C0B4AD1540133074A1370064B1B78012BF4D90F2000F071F910BD14000840E0010020C40100201F02002068020020C80000203B
:400EC000064B1B5C064AD25C51080648C1540648C154D2080549CA547047C0468C2F0000FC000020A8020020B8020020D4020020024A136840218B431360704704000840AD
:400F0000044A1168044B0B40802189000B4313607047C04608000840FFFCFFFC70B5002208E00D498B5C5D080C4CA55401335B088B54013203789A42F3D30F2000F02EF934
:400F4000074A1168074B0B4007490B4313600F2000F01AF970BDC046780200208402002008000840FFFCFFFC0002000170B5274B0C221A70012159709A700C32DA80244AC1
:400F80009A80244A9A60FFF7B3FF002304E099002148224A885001331C4A52789342F6D3002306E004211E4AD15402391D4AD15401330B2BF6D9FFF7A3FF1B4E134C31006C
:400FC000200000F0C7FA194D29000120FFF756FD200000F0D0FA0122154B1A703100200000F0B8FA29000120FFF748FD200000F0E3FA2000FFF792FF002403E02000FFF717
:401000005FFF01340B2CF9D970BDC0465C03002066020000D02F00000000FF0FC40000206C0200209C0200209A0D000078020020E10100200004000C014B18607047C046E9
:40104000080105400004000C014B18607047C046140105400004000C014B18607047C0460C01054070B504000D0000F04BFAAC40024B1C6000F04AFA70BDC0460800054080
:4010800010B500F03FFA064A116801230B43136000F03CFA18210120FFF7E4FF10BDC04600000540014B18607047C0463801054010B50D4C8023DB042360236823600020D3
:4010C000FFF7B8FF236823600C22084B1A600020FFF7E8FF3122064B1A600648FFF7B2FF0120FFF7B7FF10BD000105402401054028010540FFFF000010B5064B1B78002BA0
:4011000004D1FFF7D5FF0122024B1A70FFF7B8FF10BDC04620020020034A1368802109060B4313607047C04600000240024A13685B005B081360704700000240034A136863
:401140001B0C1B04034313607047C04600000240034A1368802109060B4313607047C04640000240024A13685B005B081360704740000240034A13681B0C1B040343136001
:401180007047C046400002401F2318401E3B8340014A13607047C04600E100E01F2318401E3B8340014A13607047C04680E100E001BE704770B504000D001F2802D900209E
:4011C000FFF7F6FF1034A40080239B059C4664442068256070BDC04670B504000E00032902D90020FFF7E4FF1F2C02D90020FFF7DFFF03252540ED00063500F083F9A408F1
:40120000A400074B9C46644421680323AB4099430B003100A9401943216000F077F970BD00E400E010B5034B1B7B584300F060F910BDC04624010020F0B557464E46C0B476
:4012400083B0040000F05EF90190E71E2D2F74D83F4B1B78DBB29C4208D83E4B1B78DBB29A463D4B1B78DBB2994631E03B4B1B78DBB29C4208D83A4B1B78DBB29A46394BBC
:401280001B78DBB2994623E0374B1B78DBB29C4208D8364B1B78DBB29A46354B1B78DBB2994615E0334B1B78DBB29C4208D8324B1B78DBB29A46314B1B78DBB2994607E09C
:4012C0002F4B1B78DBB29A462E4B1B78DBB299462D4BDE5D2F2E09D92A2C07D919222B4B1A60052000F004F9192503E0274B1D683F231D40B54206D9234BDA5D234B1A605D
:40130000052000F0F5F81F4B9C4664442378DBB21F4A13601F4B52461A601F4B4A461A600520FFF77FFFB5420AD2174BDA5D174B1A60052000F0DCF802E00020FFF738FFCA
:40134000019800F0E3F803B00CBC91469A46F0BDC0F1FF0FC1F1FF0FC2F1FF0FC3F1FF0FC4F1FF0FC5F1FF0FC6F1FF0FC7F1FF0FC8F1FF0FC9F1FF0FCAF1FF0FCBF1FF0FF4
:40138000CCF1FF0FCDF1FF0F3C3000002CFF0B4028FF0B401CFF0B4020FF0B40034B1868C0231B02184000D00120704700010B4010B500F0A7F8044A1368C02109020B4301
:4013C000136000F0A3F810BD00010B4010B500F099F808490A68084B1A408024E40122430A600A6813408022120213430B6000F08DF810BD00010B40FF3FFFFF70B5050098
:4014000000F080F80400FFF7C9FF002803D0FFF7DDFF012100E0002108482840084A1568084B2B40184310601368012901D1FFF7BFFF200000F06AF870BDC04604040400A6
:4014400010020B40FBFBFBFF10B5244B1B685B0715D5234B1B685B070ED5224BD969042001401F4C22688A432260DA698243DA611B69002B00D098470420FFF7BFFF174BB3
:401480001B685B0518D5164B1B685B0510D5154BD9698022D2001140114802688A430260D969114A0A40DA615B69002B00D098478020C000FFF7A2FF084B1B685B030CD50E
:4014C000074B1B685B0304D5064B9B69002B00D098478020C002FFF791FF10BD10020B403801002024020020FFFBFFFF000000000230800804D0C0460138FDD1C046C04661
:40150000C0467047EFF3108072B6704780F310887047C046F7B59C180023071C08268025019100922370237800982B432370BB689B6C9847019B984202D22378AB43237002
:40154000013E6D08002EEED12378F82B01D9F8232370F7BD70B5051C0E1C00242B789C4208D2AB68221C281C311C1B68FFF7D2FF0134F3E770BD38B5051C00242B789C42C6
:4015800019D2AA6813681B5DDB080F2B00D90F23D16BD268C95C1155AA68042B04D9936D906B211C012203E0936D906B211C002298470134E2E738BDF0B5041C002687B068
:4015C00063789E4262D2A3685A6C925D0392002A01D1013203921A6C925D019201992278914251D29A689B69515C0F221140B2000492002205910499019D5A50019B5B00A0
:401600000293039B019A9B189D423DD2A768E388A0885843FB68595D00F044F93B68595D00F0B6F8059B5843194B40005A2802D95B084008FAE7BA6904991B0C1B04535050
:40164000A36882085B6B01215855A368C008DB69029F5A550F22A36849421B6A5855A3685B6A5A55A368986AC1530021D86AC153186B9B68C1535B19197801350A401A7020
:401680003B1C02330293BCE7013699E707B0F0BD0000FFFFF0B585684E002B6B925B9B191C8887B0141B0094AC6A1A80A45B6B6A0294EC6A5F5CA45B2B6A03946C6B7F00EC
:4016C000645C5B180494AC680193645C1B780594009CE40FA4460F24251C6744009C3D40AC46E51764196C409C4203D2012B05D0013B00E00133FF273F2B00D89F00019D1A
:401700002B7065460F2D29D0002D24D0BC4225D8059C029F24090094974200D9171C039D954200D2151C009A092A01D8141C01343A1C0A2C14D1EA1B934206D9049A920843
:401740009A42924152429B1A00E001338268D26953543A1C04E0151C644601E0151C00246746836824015B6A5F5483689F6ABA53DA6A9B6895530F225B181D782A401A70B4
:4017800083689B6859180B781C430C7007B0F0BD002243088B4274D303098B425FD3030A8B4244D3030B8B4228D3030C8B420DD3FF22090212BA030C8B4202D31212090221
:4017C00065D0030B8B4219D300E0090AC30B8B4201D3CB03C01A5241830B8B4201D38B03C01A5241430B8B4201D34B03C01A5241030B8B4201D30B03C01A5241C30A8B42B8
:4018000001D3CB02C01A5241830A8B4201D38B02C01A5241430A8B4201D34B02C01A5241030A8B4201D30B02C01A5241CDD2C3098B4201D3CB01C01A524183098B4201D330
:401840008B01C01A524143098B4201D34B01C01A524103098B4201D30B01C01A5241C3088B4201D3CB00C01A524183088B4201D38B00C01A524143088B4201D34B00C01ACA
:401880005241411A00D20146524110467047FFE701B5002000F0F0F802BDC0460029F7D076E7704703460B437FD4002243088B4274D303098B425FD3030A8B4244D3030BAF
:4018C0008B4228D3030C8B420DD3FF22090212BA030C8B4202D31212090265D0030B8B4219D300E0090AC30B8B4201D3CB03C01A5241830B8B4201D38B03C01A5241430B7B
:401900008B4201D34B03C01A5241030B8B4201D30B03C01A5241C30A8B4201D3CB02C01A5241830A8B4201D38B02C01A5241430A8B4201D34B02C01A5241030A8B4201D3FB
:401940000B02C01A5241CDD2C3098B4201D3CB01C01A524183098B4201D38B01C01A524143098B4201D34B01C01A524103098B4201D30B01C01A5241C3088B4201D3CB007F
:40198000C01A524183088B4201D38B00C01A524143088B4201D34B00C01A5241411A00D201465241104670475DE0CA0F00D04942031000D34042534000229C4603098B4295
:4019C0002DD3030A8B4212D3FC22890112BA030A8B420CD3890192118B4208D3890192118B4204D389013AD0921100E08909C3098B4201D3CB01C01A524183098B4201D3D9
:401A00008B01C01A524143098B4201D34B01C01A524103098B4201D30B01C01A5241C3088B4201D3CB00C01A524183088B4201D38B00C01A5241D9D243088B4201D34B0037
:401A4000C01A5241411A00D20146634652415B10104601D34042002B00D54942704763465B1000D3404201B5002000F005F802BD0029F8D016E770477047C046F8B556465A
:401A80005F464D464446F0B40F00FD0FAA4609037C002E005F00450F490A7F0D2943C5001803BC46400A570F640DDB0F3843D2009A4500D1AAE06646A61B002E00DCFFE037
:401AC0006346002B39D10300134300D0D9E06B0709D00F232B40042B05D02B1DAB42AD416D4249191D000B0200D482E0CA4B01349C4200D1FEE00A005646C84BED081A40C7
:401B00005007640552020543120B640D002112030B0D1B056405120B1A436308C04CF60714401C43640064083443280021003CBC90469946A246AB46F8BDB74B9C42C6D002
:401B400080231B041843382E00DDEBE01F2E00DD1EE120239B1B9C4603006746BB40984613004746F3403B436746BA40571EBA4113430200F240EB1A9D42B6411D008A1A1F
:401B80007642911B0B0231D54A02560A002E00D1B4E0300001F050F90300083B1F2B00DDB5E020222900D21AD1409E400A009D4032439C4200DDB1E01C1B631C1F2B00DD38
:401BC000D5E0202114002800C91A8C40D8408D400443DA40681E854111002543002476E74146314300D134E2310045466B0700D06FE756464807ED08C9080543864B9C429A
:401C000035D00A036405120B640D7FE76346E31A9B46002B00DC8BE06746002F3CD07E4FBC4200D153E780273F0438435B46382B00DCF7E00243501E82410020D2B25319DC
:401C40004218AB4289411D00494289180B02CDD5714B01349C4200D13DE101206F4A6B080A4028401843D507054351082FE72B000B4300D1CBE180231B030B431A03120B71
:401C800044E7013E002E6DD1AE1AB5429B41091A5B42C91A350075E70700174300D116E701235B429C46E3445B46002B00D0E0E0AA18AA429B4109185B4259181500C5E7B0
:401CC000002E75D1661C7605760D012E00DCF3E0AE1AB0464545BF410E1A7F42F61B370200D48FE0551BAA42B641411A76428E1B9A464BE756460022002507E7280001F049
:401D00009BF820300300083B1F2B00DC49E72A002838824000259C4200DC4DE73F49E41A1140D4E60243501E8241D3B2002222E7002B00D0F3E0631C9C465B055B0D012BEB
:401D400000DC9FE0344B9C4500D1C3E0AA180918AA42804140424118CD075208154349086446B4E62C4B9C4200D0ECE6AFE611001F3CE1400C00202B00D17FE04021CB1AC8
:401D80009A4015436A1E95410021254300242DE733000700203BDF403B00202E70D04027BE1BB0400243501E824113430022E2E6002C4FD0184CA44500D1ABE080242404AF
:401DC00076422143382E00DDDFE01F2E00DD43E12027BC1BA1460C004F46BC40A0462C004746F4403C434F46BD406F1EBD41F1402C43151BAA429241411A5242891A64469B
:401E00009A46BFE641464546314300D0BEE6002600240025F2E6C046FF070000FFFF7FFFFFFF0F801F2B59DC2027FF1ABC46070063469F405B46B9461700DF40B8464F46EE
:401E400043461F4363469A40531E9A415B463A43D840F4E60C002C435CD0F643002E55D1551BAA42A441411A6442091B9A46644688E6964FBC4200D0D8E628E6002280E7FE
:401E800000208FE70B002B43002C00D0C2E0002B00D101E10300134300D118E6AB18AB42B6410918764271180A0200D409E1884A1D00114064460AE6002C5BD10E002E43EB
:401EC00000D08AE00100114300D1C2E0010015009A46FCE56446002100258FE620235B429C46DC4463460700DF405B46BC46202B00D1ACE040235F46DB1B98400243501E1F
:401F00008241634613431A00002098E66F4CA44500D057E70100150064469A46D7E5002C39D10C002C436ED0DB43002B1AD0674CA44568D0382B00DDA4E01F2B00DDAEE0AA
:401F400020240F00E41AA740B9462F00DF40B846A3464F46444627435C46A5406C1EA541D9403D43AD1895429B4109185B42591864466BE60C002C4315D1010011437BD039
:401F8000010015009A46514CA1E50D43691E8D410021ECB22DE74D4CA44534D0802424045B422143C6E7040014434ED0ED084C072C438025C9082D03294208D0C6082E4239
:401FC00005D1D208410711430C009A463100620FC900E50011433D4C79E50600164300D175E5AE1AB0464545BF410E1A7F42F61B370200D4F4E5551BAA42B641411A764206
:40200000891B9A4663E50100150064465FE5002200257BE5002B3BD00300134315D0ED084B072B438025C9082D03294207D0C4082C4204D141070B002100D2081343C9009C
:402040005A0F1143DD00214C41E5204C3FE5002054E700260025D1E534000F00203CE7403C00202E2BD04027BE1BB1400D43691E8D4100212C43BCE6802100260903134CC2
:402080000025BBE50D43691E8D410021EDB269E7010015000D4C1AE50100150017E51C000F00203CE7403C00202B0CD04027FB1A99400D43691E8D410021254352E7002138
:4020C000D4E71D0092E50021F3E7C046FF070000FFFF7FFFF0B556464D4644465F46F0B41D000E034C00CB0F87B0070092468146360B640D98466AD06D4B9C4235D080222F
:40210000430F12041343F6001E43C3009946694B00279C460023644402932B0368001B0BED0F51469B46400D009500D178E0604B98426CD05B46DA004B0F802109040B43FE
:4021400013439B465346D9005A4B9C46002360444246201A6A40924601901F430F2F00D9B0E05548BF00C0598746374300D088E0002399460233082700260293CDE7434638
:40218000B34649460093029B009A9246022B00D0BFE1002153460122002689461A40444B002136030C0D2405360B2643434C1B0526401E437600D2077608164348463100FC
:4021C00007B03CBC90469946A246AB46F0BD330003434FD0002E00D1BCE1300000F02CFE03000B3B1C2B00DDADE11D220100D31A08393A008F408E40DA40B9461643304B4A
:4022000000279C46002360444442029385E753465A4613432CD1002300219B46023397E70B4320D05B46002B00D19EE1584600F003FE03000B3B1C2B00DD8FE1020059467C
:40224000083A91408B461D21CB1A5146D9400B0059460B4351469B469140194B9C4660444042002374E7002300219B4601336FE703236DE700239946013304270026029337
:402280004BE703230C27029347E70122D51A382D00DCB0E153461A4000210023002689467EE700238026994600223603004B77E7FF07000001FCFFFF6C300000FFFF0F8085
:4022C000F30300005E4500D972E100D16DE1019B4D46013B01930023340002935B461E020B0E1E430B020393330C994633041B0C494620000093FFF74BFA009B37004343E0
:402300000600494620009846FFF7C8FA2C0C09040C43A04509D9E419731EA74200D95CE1A04500D859E1023EE4194346E41A49462000FFF72DFA0300009A8046534349465B
:4023400020009B46FFF7AAFA2A040904120C0A4393450DD94346D219013B974200D93AE1934500D837E102235B429C46D219E0445B46D21A4346360433439B460399180CFF
:402380000B0C1D00059309045B46090C0C001B041B0C4443049159436B4368431B190D0CEB189C4203D980246402A44660441C0C09041B04090C20185D18824200D2DEE01F
:4023C00000D1D7E0161A029B9C465D1BAC459B415B42F61AB74200D106E149463000FFF7D7F9009B04004343494630009846FFF755FA2E0C09040E43B04509D9F619631E78
:40240000B74200D9F3E0B04500D8F0E0023CF6194346F31A494618000293FFF7B9F9009B06004343494602989846FFF737FA2D0409042D0C0D43A84509D9ED19731EAF4220
:4024400000D9D6E0A84500D8D3E0023EED192404210043463143049E059A3000ED1A0B040C0C1B0C58436643534354439A19030C9B189E4203D980225202944664441A0CC3
:4024800000041B04000C14191B18A54250D34DD001231943964A019B94466344002B00DCF3E64A0709D00F220A40042A05D00A1D8A42894149428B4411005A46D20108D5E9
:4024C0005A468C4B1A4093468022D2009446019B6344894A934200DD5BE65A46C908500708435602514601225B058146360B5B0D0A4055E680231B031E4211D05A461A4263
:402500000ED15E461E433603360B2A0089467B4B46E6032B00D1E1E0012BBBD11A40BBE61E433603360B4246744B39E6002BB1D07D194A1EAF4252D91100A542A8D1039ACA
:402540009A42A5D1A6E703003E00283B9E400023994654E600F070FC203041E603005246283B9A400021934677E6504600F064FC20305EE6029B0026AB4200D323E7039E14
:402580000299B44661448846B045B6415B467642F619B218013B0291974213D290424FD800D18EE0161A9B460DE7894500D28EE674084B46F60735005B081D434B46DB07A2
:4025C00002938BE69742EDD10399029CA142E5D93E1A9B46F7E69846CAE61E00A5E6AC423ED874D0110053E70121494252E71C000EE71E002BE71F2D3CDC20230A0058460D
:402600005B1B9840EA4099400243481E81415E461143EE404B0709D00F230B40042B05D00B00191D99429B415B42F61833023CD55346012200211A40002601238946AFE53D
:4026400002235B429C46039CE344A446029B63449846A045B6417642F6190293B218B1E603988A1E41008142B6417642F619AD19039161E71F225242D31A5A46DA40130015
:40268000202D29D040225846551BA8400143481E814107200B4318400026002809D00F2200261A401900042ABBD10B0070077602360BDB0803439946012253461A4000231C
:4026C0006EE502998D42BBD89B4600267BE603989842C5D3110032E70020D7E780265B4636031E433603360B009A8946034B57E5FF030000FFFFFFFEFE070000FF070000B7
:40270000F0B55F4656464D464446F0B40D0399464E002B0B87B00700924680469B46760DCC0F002E69D06D4B9E4235D05B468022DD001204430F13432B439B46C300984692
:40274000674B00279C460023664401934A4615035000D20F53462D0B400D914600D176E05E4A90426CD080225B0F120413435C4AED0094461D4353460022DB006044494684
:402780003618701C6140029017430F2F00D9AFE05448BF00C759BF465B461F4300D088E000239B469846023308270193CEE74946022A6AD0032A00D109E2012A00D0BBE14D
:4027C00011400022002300259046CCB200212D030A0D12052D0B1543434A1B0515401D436D00E4076D0825434046290007B03CBC90469946A246AB46F0BD034352D05B4682
:40280000002B00D18AE1584600F016FB03000B3B1C2B00DD7BE11D22D31A3A0001005D46DA4008398D4013008F402B439B46B8462E4B00279C46002360444642019385E797
:4028400052462A432CD100250023022297E752462A4321D0002D00D154E1280000F0ECFA03000B3B1C2B00DD46E11D21CB1A51460200D9405346083A954093400D431B4AA4
:40288000944660444042002279E7012400220C40124B0025904699E70025002301226EE703226CE700239B4698460133042701934CE703230C27019348E700238025984629
:4028C00000242D03054B81E75D464346019A6FE75D4643462100019A6AE7C046FF07000001FCFFFFAC300000FFFF0F80F30300004246120C91461A0C9446424617044A4660
:402900001B041B0C5A43604690464A4642431000039262461C003F0C7A437C4342440192220C9246019A5244904506D98246802040028046C24450460390100C0490484612
:402940002404240C1204121905922A0C2D042D0C68432C00824648467C4350438146200C8046574357444744BA4503D9802040028046C144380C3F04B84648442404240C9E
:4029800001900498A044404404905846000C814658460404200C8246070048465F434C464343604660436446834650464443380C8446E4186444A34203D980235B029C4666
:4029C000E34448463F04230C3F0C2404E419574668436F4384464D46504655434243380C814662444A445B44944503D9802040028446654403983F04834604983F0C8446F6
:402A0000E344C345804140428246100484460198674484466744A344BC46A345A4419946D44464428742BF41D4458041E144A04699459B417F424042C8440743120CBA1881
:402A4000A045A4415F423B0064422343D71843467D19DB0D6D021D435B465A02059B1A43531E9A415B46DB0D1A4343465B021343EA0107D501225C0813402343EA07029EDF
:402A800013436D08574AB218002A4BDD580709D00F201840042805D0181D98429B415B42ED180300E80104D54F4A15408022D200B2184E48824200DDE7E60124DB086807D5
:402AC00018436D02530580462D0B5B0D0C407DE6802259461203114208D0154206D115432D0398462D0B4C46414B6FE65D4615432D032D0B3E4B69E603005546283B9D40C6
:402B00000023BCE6504600F097F92030A8E60300283B9F400023BB46984689E600F08CF9203073E60124A61A382E07DD00220C4000230025904649E6029EA3E71F2E20DCAB
:402B400020222C001800921BF040944093400443581E83411C43F540630709D00F232340042B05D023001C1D9C4292415242AD182B021FD5012400220C4001230025904621
:402B800024E61F202C004042821AD440202E1CD04022961BB5402B43581E83410720234318400025002809D00F2200251A401C00042AD8D1230068076D022D0B0124DB0895
:402BC000034398460C40002300E60025E3E780220124120315432D0398462D0B0C40044BF4E5C046FF030000FFFFFFFEFE070000FF07000070B5002830D0C317C4185C40D2
:402C0000C50F200000F018F9174B184A1B1AD21A1F2A18DD164AD21A9440002224035B05240B5B0D0021100024030A0D1205240B1443104A1B0514401C436400ED0764081F
:402C40002C43210070BD210091400A000B21081AC4405B052403240B5B0DE3E70025002300240022DEE7C0461E0400003304000013040000FFFF0F804200120E511C4302F7
:402C8000C9B270B55D0AC40F012915DDE02189008C466D071B0B6244002128000D0D2D052B431C4D52052B40520813435B00E4075B082343190070BD002A15D1002D1FD023
:402CC000280000F0B9F80A281DDC0B232A001B1ADA4013000200153295400F4A1B03121A52051B0B520DD7E7002D06D080221B0B120313436D07094ACEE7084A0023CBE7F2
:402D000000220023C8E703000B3B9D402B000025E3E7C046FFFF0F8089030000FF0700004B0070B55E0D0C03751C640A420F6D052243C90FC4006D0D012D2ADD3B4BF3184D
:402D4000FE2B1ADC002B42DD8001451EA841D2001043620F0243500704D00F201040042800D004328020C004104021D00133FF2B03D09201520ADBB201E0FF23002252029B
:402D8000520ADB0513435B00C9075B080B43180070BD002E07D01443EFD08020D20080040243FF23D7E722430023002A03D00522D208FF2B03D05202520ADBB2DFE7002A7A
:402DC00032D08020C00302435202520AD7E71800173014DB8020000402431E20C01A1F280FDC2500124BF3189D406E1EB5419A402B0013432200C2401A430023ABE700239A
:402E0000D5E702256D42EB1A1500DD40202809D0084BF3189A401443621E9441220000232A4398E70022F6E70022A8E780FCFFFF82FCFFFFA2FCFFFF1C2101231B049842F7
:402E400001D3000C10391B0A984201D3000A08391B09984201D30009043902A2105C40187047C04604030202010101010000000000000000014B18687047C0469C01002079
:402E80000E4B70B500251E000D4CE41AA410A54204D0AB00F35898470135F8E700F028F9084B00251E00084CE41AA410A54204D0AB00F35898470135F8E770BDFC300000F6
:402EC000FC300000FC3000000431000003008218934202D019700133FAE770470000000000300F40000400400F40000438803E4058045F011801B401E2805304D4208B049A
:402F000097086C407008DC03190861028908A102B448B502C608D802E201EC0804300F4001310F4002330F4002400F4002410F4003420F400A430F4001010101020202021E
:402F4000020203030001020702030405060700010000014004000140080001400C0001401000014008000440080104400802044008030440080404400000044000010440A5
:402F800000020440000304400004044000000000000000000000000001000000020000000400000080000000040000000800000010000000200000004000000080000000B9
:402FC00001000000020000000C000000000000007802002084020020180100206C0200209C0200208C2F0000C400002020030020F0020020FC020020440300200803002059
:403000002C03002068030020640200202C300000CC2F0000C82F0000E9090000C50700009506000089070000C10900000101010202020204040404040404040403040506EE
:403040000708090A0B0C0E0F101112131415161718191B1C1D1E1F2021222325262728292A2B2E2F3031323334350000C422000092210000982200008821000098220000BC
:40308000A222000098220000882100009221000092210000A2220000882100007E2100007E2100007E210000F4240000F0280000B0270000B0270000AE270000C828000096
:4030C000C8280000BA280000AE270000C8280000BA280000C8280000AE270000D0280000D0280000D0280000D02A000043000000F8B5C046F8BC08BC9E4670474502000060
:4031000061040000F8B5C046F8BC08BC9E4670471D02000028310000C0000020E0000000D801000000000000000000000000FF0FFF0F000008010440080104400801044050
:4031400008010440080204400802044008020440080204400802044008020440080304400803044014000000010000001E1E1E1E1E1E1E1E1E1E1E1E010000000100000011
:40318000020202020202020202020202010000000000E02EC05D00001800000000366E01040404000000000000000000000000000000000000000000000000000000000002
:4031C00000000000EC3000000000000000000000000000000000000000000000000000000000000000000000000000000000000000000000000000000000000000000000B3
:40320000000000003C010020000000000000000000000000000000000000000000000000000000000000000000000000000000000000000000000000000000000000000031
:40324000000000000000000000000000000000000000000000000000000000000000000000000000000000000000000000000000000000000000000000000000000000004E
:40328000000000000000000000000000000000000000000000000000000000000000000000000000000000000000000000000000000000000000000000000000000000000E
:4032C00000000000000000000000000000000000000000000000000000000000000000000000000000000000000000000000000000000000000000000000000000000000CE
:40330000000000000000000000000000000000000000000000000000000000000000000000000000000000000000000000000000000000000000000000000000000000008D
:0200000490303A
:02000000CDD25F
:0200000490402A
:200000000000000000000000000000000000000000000000000000000000000000000000E0
:0200000490501A
:0C000000000204A61193110104B5DF6595
:0200000490600A
:0100000001FE
:00000001FF