:400000000010002011000000E5030000E503000010B500F0EFF9C04670B51C4C23688022D20213432360182000F07CFF2268184B13402360174A184B1A601122174B1A60F2
:400040000F32174B1A60103A164B1A602032164B1A6080221206154B1A6000252560144A144B1A60144A154B1A60154A154B1A60154A164B1A601649092000F011FF092040
:4000800000F0F8FE134B1D6070BDC04600010B40FFFFFBFF0600008004010B400802024014020240180202402002024008010B40FE00008000000240FE0000C0400002407A
:4000C0000100008080000240CF00008004000240351100000C020B4010B572B600240FE032486200131959000B00411889881A5AC31858880004104300F048F90134E4B231
:40010000012CEDD9294801000C313C3000F024F9C0229200264B1A60EE221202254B1A609922254B1A6099231B04244A13608A21C903234A1160234A1360234A1360234A54
:40014000136080229205224B1A6022490B783C22934314221343DBB20B701F4A117816230B43DBB2137004221C4B1A607D32FF321B4B1A6084231B4A13601B4A13607833E4
:400180001A4A13601A4A1360D8221201194B1A600623194A13603121184A1160184A1360FFF73AFF00F018F910BDC04630200000000001400C0001401000014000500F40DC
:4001C00008500F4010500F4020500F4030500F4038500F4001700F4000700F4000000440080004400001044018010440000204401802044008030440000404400804044008
:400200001804044010B5064C2378002B07D1054B002B02D0044800E000BF0123237010BDA0010020000000002C200000084B10B5002B03D00749084800E000BF07480368D1
:40024000002B00D110BD064B002BFBD09847F9E700000000A40100202C200000C00000200000000070B562B600F048FB01F03AF801F014F800F088FB00F094FC00F098FAB9
:400280005AE0002000F0E0FB2E4C2060012000F0DBFB6060022000F0D7FBA060032000F0D3FBE060042000F0CFFB2061052000F0CBFB6061062000F0C7FBA061072000F088
:4002C000C3FBE061002428E0A3001E4A9B58012B18D11D4D286801F015FE1C4A1C4B01F061FB01F0D9FD2860A300164AD3181B6A002B11D1A300D31801221A62601C01F03F
:4003000001F809E0A3000F4AD3181B6A012B03D1A300D31800221A620134072CD4DD0A4C0C4D2368E81A00F067FF236864332360AB4201DD044B1D6000F000F90028A0D1DA
:400340009AE7C046BC0100206C020020CDCCCCCCCCCCEC3FFFFF0000F0B50025002711E0BB00C658F3B2FF22964308E06A008A181478A419527822700135013BDBB2002B7C
:40038000F4D10137062FEBD9F0BDC04610B50A00002101F043FE10BD0C4B1B68002803D080221206134301E05B005B08074A1360074B1B68002803D080229204134301E01E
:4003C000044A1340024A13607047C04680031A4008010B40FFFFFFFD10B50120FFF7DCFF10BDC04610B501F0EDFD03680C2B00D1FEE7FEE770B50F4E0F4D13E029686B6819
:40040000AC68002202E001C901C30432A242FAD1E868002202E0002102C304328242FAD11035013E002EE9D101F0D2FDFFF71AFFFEE7C046010000001022000010B50023F1
:400440000AE0032B03D89A000949505800E009489900094A885001332F2BF2D9FFF73CFE8022D205116801230B43136010BDC04600000000E50300000000002070B5164842
:400480000368DBB2154A13700F24A3431900144D2B780F2213400B43E13293432A78A243134303600F4A104B1A60104A104B1A60104A1168104B0B40C021C9000B431360F0
:4004C0000F2000F0E1FC0D490F2000F0E9FC03210F2000F0F7FC70BD00FF08407002002062F1FF0F00020001080008400008A0010400084010000140FFF0FFFFC90B0000AF
:4005000010B500F0A5FC00F087FC0021002000F08BFC0021002000F0A3FC00F08FFC00F071FC044A136804490B4313600F2000F0A1FC10BD0400084000100880024B187871
:40054000012318407047C046FC0100204000024B181880887047C046FC010020F8B5104F3E5C3818037A5D005D19EDB29B00DCB200F040FFB300FB181E6932680F21A14051
:400580008A4311000422A2400A435C6A23680721A9408B432360326000F030FFF8BDC04688200000F8B5194A145C13181F7AB900C9B27D007D19EDB2154B185CA300D318B5
:4005C0001E6933680F228A4093433360022800D10020012801D1002600E0062600F00AFFA4000A4B1C19616A0B680722AA4093431A003300AB4013430B6000F0FFFEA16BED
:400600000B680122BA4093430B60F8BD882000009402002010B5002403E02000FFF7C2FF0134072CF9D910BD044A11684002C023DB001840084310607047C0460400084049
:40064000CA0807231940063B8B40825C134201D0012000E00020704710B504000134E4B2082C06D0210004482030FFF7E9FF0028F4D0200010BDC046C4000020F8B5040090
:40068000354B1B184C229D5CAA00344BD65801003348FFF7D5FF334B9E4203D88640FF231B041E43304B185D013880B2002100F0BBFB2E4B185D013880B2002100F0D0FB8B
:4006C0002B4B5B7D002B1ED00F2000F0DDFB294B18688023984340220243244B1B5D22490F5D7B43DBB21903CB1A1904AD001B4BEB587B43994201D2C02202431D4B1A6091
:400700000F2000F0B7FB0F2000F0BEFB1A4801681A4B19401A4B1B5D1A4A125D120413430B430360134F3D68174B1D40174B1D430F2000F09FFB2000FFF710FF00F05AFE0C
:4007400004003D60002000F04BFE114B1E60200000F054FEF8BDC04688200000C400002074020020FFFFFEFF9C0200207C020020FC010020040008400800084000FF80FFD8
:40078000840200208C020020FF1FDFFF20E020000C00084010B5054B00221A70C2B21A7581221A70FFF76AFF10BDC046FC01002010B50C4C00232370FF332375207DC0B289
:4007C000FFF74AFF2075237DDBB2072B08D8217801230B43DBB22370207DC0B2FFF74EFF10BDC046FC01002070B50500184B1C68A4B24300174AD3189C80174B1B184C2264
:400800009B5C9B00154A9A58154B9A4208D801001448FFF715FF6B000E4AD31804419C802800FFF7BFFE0F2000F02EFB0E4A11680E4B0B40A02109020B4313600C4A11684F
:400840000C4B0B4013600F2000F014FB70BDC0460C000840FC01002088200000C4000020FFFFFEFF7402002004000840FF1FDFFF0800084000FF80FF10B5CC080723194042
:40088000063B8B40DBB2002A04D0041922781343237003E0041922789A43227010BDC04670B50600002400250BE03000FFF772FFFFF744FE0128FBD03000FFF747FE24185C
:4008C0000135002DF1D0A0B270BDC046014B19547047C0469402002010B5002404E000212000FFF7F3FF0134072CF8D9FFF7C6FD0020FFF799FEFFF78DFE10BD10B50B4B25
:400900009B7D002B04D1FFF7E7FF0122074B9A75FFF7F6FD00F01EFA0122044BDA75044A13688021C9030B43136010BDFC0100200400084030B5094B1B5C42000849545A6F
:400940000849545208180025057405760648C05CCB1820215854054BD45230BDD4200000000200201402002008010020BC02002010B50400FFF70EFFFFF7E0FD0028FBD1C4
:400980002000FFF7D7FF10BD10B5002403E02000FFF7EEFF0134072CF9D910BDF0B5474680B40400234B1D5C234B5F5D234B5E5D234B5B5D9846010022482C30FFF740FE05
:4009C000002811D01F4B1B191B7EBE1BB34226DA1C4E30002C3000222100FFF74DFF751920234246EA541AE0164B1B191B7EBE19B3420FDB2022134B5D19AB5C013BDBB213
:400A0000AB54002B0BD11F3A21000E482C30FFF733FF04E00B4B5D1920234246EA54210008482C30FFF70CFE002800D0012004BC9046F0BDD4200000D4020020CC020020A2
:400A4000080100201402002070B5084B1C5C1818057A651900262000FFF7A0FF002800D001260134A542F6D8300070BDFC200000884202D9013880B203E0884201D20130DC
:400A800080B27047F0B54F464646C0B483B00400374B1B5C9946374B4A469B5C98464200354BD65A354B1B7C002B07D0344D1700515B3000FFF7DCFF06007853E1B22E4AF1
:400AC000304800F05FFD63002F4A9A5A964206D300212E4B1955B51AADB2012702E0951BADB20027002F16D1294B49465B5C9D4211D9264B1B5D214A1219127A934206D3E9
:400B00002000FFF717FF0022204B1A5513E001331E4A13550FE010021B4B9C4619190B7C18433018801A020A63006646F25208740022164B1A5543466A46D380D688B542A9
:400B40000CD9002F0AD0FF2D04D90F4B1C19FF23237607E00C4B1C19257603E00A4B1C190023237603B00CBC90469946F0BDC046D4200000A4020020000200200801002015
:400B8000BC0200202403002014020020AC020020B402002010B5040000F064F82000FFF771FF10BD10B5002409E021000548FFF747FD002802D02000FFF7ECFF0134072CF1
:400BC000F3D910BDE400002010B50F2000F05CF901221E4B1A601E4B1878C0B2FFF704FE1C4B1B785BB2002B05DA1A4A137801218B43137026E0164C2078C0B2FFF72CFDB2
:400C000020702378DBB2072B05D8114B1878C0B2FFF734FD16E00F4B1A7801218A431A701B785B060ED500220B4B1A7006E00B4AD15C0B4AD1540133074A1370064B1B7866
:400C4000002BF4D00F2000F015F910BD1400084010020020FC0100204102002078020020E400002070B582B0154B1C5C154EC1B2154D009533002200144800F001FD335DB4
:400C8000295D134A1155DB2B03D8DB08114A135514E0EC2B03D81B090E4A13550EE0F42B03D85B090B4A135508E0F92B03D89B09084A135502E00022064B1A5502B070BDA9
:400CC000D4200000D4020020A402002024030020B4020020CC020020024A136840218B431360704704000840044A1168044B0B40802189000B4313607047C0460800084074
:400D0000FFFCFFFC70B5002208E00D498B5C5D080C4CA55401335B088B54013203789A42F3D30F2000F0B0F8074A1168074B0B4007490B4313600F2000F09CF870BDC046B0
:400D4000840200208C02002008000840FFFCFFFC0002000170B5224B08221A705A709A701032DA801F4A9A801F4A9A60FFF7B4FF002304E099001D481D4A88500133184AB7
:400D800052789342F6D3002306E00421194AD1540239194AD1540133072BF6D9FFF7A4FF164D0F4C2900200000F04CFB200000F05AFB0122124B1A702900200000F042FB61
:400DC000200000F071FB2000FFF79CFF002403E02000FFF747FF0134072CF9D970BDC04624030020660200000C2100000000FF0FC40000207C0200209C0200209A0D000025
:400E000011020020034A1368802109060B4313607047C04600000240024A13685B005B081360704700000240034A13681B0C1B04034313607047C04600000240034A1368C8
:400E4000802109060B4313607047C04640000240024A13685B005B081360704740000240034A13681B0C1B04034313607047C046400002401F2318401E3B8340014A136017
:400E80007047C04600E100E01F2318401E3B8340014A13607047C04680E100E001BE704770B504000D001F2802D90020FFF7F6FF1034A40080239B059C46644420682560A7
:400EC00070BDC04670B504000E00032902D90020FFF7E4FF1F2C02D90020FFF7DFFF03252540ED00063500F085FAA408A400074B9C46644421680323AB4099430B0031006C
:400F0000A9401943216000F079FA70BD00E400E010B5034B1B7B584300F062FA10BDC04624010020F0B557464E46C0B483B0040000F060FA0190E71E2D2F74D83F4B1B78C9
:400F4000DBB29C4208D83E4B1B78DBB29A463D4B1B78DBB2994631E03B4B1B78DBB29C4208D83A4B1B78DBB29A46394B1B78DBB2994623E0374B1B78DBB29C4208D8364BB5
:400F80001B78DBB29A46354B1B78DBB2994615E0334B1B78DBB29C4208D8324B1B78DBB29A46314B1B78DBB2994607E02F4B1B78DBB29A462E4B1B78DBB299462D4BDE5DDD
:400FC0002F2E09D92A2C07D919222B4B1A60052000F006FA192503E0274B1D683F231D40B54206D9234BDA5D234B1A60052000F0F7F91F4B9C4664442378DBB21F4A136005
:401000001F4B52461A601F4B4A461A600520FFF77FFFB5420AD2174BDA5D174B1A60052000F0DEF902E00020FFF738FF019800F0E5F903B00CBC91469A46F0BDC0F1FF0FBF
:40104000C1F1FF0FC2F1FF0FC3F1FF0FC4F1FF0FC5F1FF0FC6F1FF0FC7F1FF0FC8F1FF0FC9F1FF0FCAF1FF0FCBF1FF0FCCF1FF0FCDF1FF0F782100002CFF0B4028FF0B40E1
:401080001CFF0B4020FF0B40034B1868C0231B02184000D00120704700010B4010B500F0A9F9044A1368C02109020B43136000F0A5F910BD00010B4010B500F09BF9084938
:4010C0000A68084B1A408024E40122430A600A6813408022120213430B6000F08FF910BD00010B40FF3FFFFF70B5050000F082F90400FFF7C9FF002803D0FFF7DDFF01212A
:4011000000E0002108482840084A1568084B2B40184310601368012901D1FFF7BFFF200000F06CF970BDC0460404040010020B40FBFBFBFF10B5244B1B685B0715D5234B01
:401140001B685B070ED5224BD969042001401F4C22688A432260DA698243DA611B69002B00D098470420FFF7BFFF174B1B685B0518D5164B1B685B0510D5154BD969802237
:40118000D2001140114802688A430260D969114A0A40DA615B69002B00D098478020C000FFF7A2FF084B1B685B030CD5074B1B685B0304D5064B9B69002B00D09847802073
:4011C000C002FFF791FF10BD10020B403801002044020020FFFBFFFF0004000C014B18607047C046080105400004000C014B18607047C046140105400004000C014B186028
:401200007047C0460C01054070B504000D0000F0F1F8AC40024B1C6000F0F0F870BDC0460800054010B500F0E5F8064A116801230B43136000F0E2F818210120FFF7E4FF46
:4012400010BDC04600000540014B18607047C0463801054010B50D4C8023DB042360236823600020FFF7B8FF236823600C22084B1A600020FFF7E8FF3122064B1A600648E7
:40128000FFF7B2FF0120FFF7B7FF10BD000105402401054028010540FFFF000010B5064B1B78002B04D1FFF7D5FF0122024B1A70FFF7B8FF10BDC0466402002010B500F0A9
:4012C0007DF810BD10B500F02BF810BD10B5044A1368802109060B431360FFF7EFFF10BD0000064010B5064B1B78002B04D1FFF7E9FF0122024B1A70FFF7E8FF10BDC046E0
:4013000066020020044B1B680F221340082BF9D0024B18607047C0460802064040020640134A144B1A600023134A13601349144A1160144A14490A600720144908601449B7
:401340000B6006381349086013490A60134A1360134A1360134A1360134A1360134A1360134A1360134A13601268134B1A8070470B000002000006404000064001000A007D
:401380004800064007000080000306400403064010030640440006400002064004020640880E0640C80E0640480F0640080F0640C80F0640880F06406802002005490B68D4
:4013C000F0229343603A13430B60034B1A88034B1A6070471000014068020020880F06400230800804D0C0460138FDD1C046C046C0467047EFF3108072B6704780F31088C3
:401400007047C046F7B59C180023071C08268025019100922370237800982B432370BB689B6C9847019B984202D22378AB432370013E6D08002EEED12378F82B01D9F823C8
:401440002370F7BD70B5051C0E1C00242B789C4208D2AB68221C281C311C1B68FFF7D2FF0134F3E770BD38B5051C00242B789C4219D2AA6813681B5DDB080F2B00D90F2303
:40148000D16BD268C95C1155AA68042B04D9936D906B211C012203E0936D906B211C002298470134E2E738BDF0B5041C002687B063789E4262D2A3685A6C925D0392002A13
:4014C00001D1013203921A6C925D019201992278914251D29A689B69515C0F221140B2000492002205910499019D5A50019B5B000293039B019A9B189D423DD2A768E38826
:40150000A0885843FB68595D00F060F93B68595D00F0D2F8059B5843194B40005A2802D95B084008FAE7BA6904991B0C1B045350A36882085B6B01215855A368C008DB69C1
:40154000029F5A550F22A36849421B6A5855A3685B6A5A55A368986AC1530021D86AC153186B9B68C1535B19197801350A401A703B1C02330293BCE7013699E707B0F0BD83
:401580000000FFFFF0B585684E002B6B925B9B191C8887B0141B0094AC6A1A80A45B6B6A0294EC6A5F5CA45B2B6A03946C6B7F00645C5B180494AC680193645C1B7805946D
:4015C000009CE40FA4460F24251C6744009C3D40AC46E51764196C409C4203D2012B05D0013B00E00133FF273F2B00D89F00019D2B7065460F2D29D0002D24D0BC4225D8E3
:40160000059C029F24090094974200D9171C039D954200D2151C009A092A01D8141C01343A1C0A2C14D1EA1B934206D9049A92089A42924152429B1A00E001338268D269AA
:4016400053543A1C04E0151C644601E0151C00246746836824015B6A5F5483689F6ABA53DA6A9B6895530F225B181D782A401A7083689B6859180B781C430C7007B0F0BDC5
:4016800070B58068446BC069655C405CFF213F2801D88100C9B246B2FF24002E01DB4000C4B28D4201D9291C6C08012081439954049B9C5470BD0000002243088B4274D340
:4016C00003098B425FD3030A8B4244D3030B8B4228D3030C8B420DD3FF22090212BA030C8B4202D31212090265D0030B8B4219D300E0090AC30B8B4201D3CB03C01A5241EB
:40170000830B8B4201D38B03C01A5241430B8B4201D34B03C01A5241030B8B4201D30B03C01A5241C30A8B4201D3CB02C01A5241830A8B4201D38B02C01A5241430A8B42C1
:4017400001D34B02C01A5241030A8B4201D30B02C01A5241CDD2C3098B4201D3CB01C01A524183098B4201D38B01C01A524143098B4201D34B01C01A524103098B4201D3F5
:401780000B01C01A5241C3088B4201D3CB00C01A524183088B4201D38B00C01A524143088B4201D34B00C01A5241411A00D20146524110467047FFE701B5002000F0F0F89C
:4017C00002BDC0460029F7D076E7704703460B437FD4002243088B4274D303098B425FD3030A8B4244D3030B8B4228D3030C8B420DD3FF22090212BA030C8B4202D312125A
:40180000090265D0030B8B4219D300E0090AC30B8B4201D3CB03C01A5241830B8B4201D38B03C01A5241430B8B4201D34B03C01A5241030B8B4201D30B03C01A5241C30A39
:401840008B4201D3CB02C01A5241830A8B4201D38B02C01A5241430A8B4201D34B02C01A5241030A8B4201D30B02C01A5241CDD2C3098B4201D3CB01C01A524183098B42F7
:4018800001D38B01C01A524143098B4201D34B01C01A524103098B4201D30B01C01A5241C3088B4201D3CB00C01A524183088B4201D38B00C01A524143088B4201D34B0090
:4018C000C01A5241411A00D201465241104670475DE0CA0F00D04942031000D34042534000229C4603098B422DD3030A8B4212D3FC22890112BA030A8B420CD38901921105
:401900008B4208D3890192118B4204D389013AD0921100E08909C3098B4201D3CB01C01A524183098B4201D38B01C01A524143098B4201D34B01C01A524103098B4201D366
:401940000B01C01A5241C3088B4201D3CB00C01A524183088B4201D38B00C01A5241D9D243088B4201D34B00C01A5241411A00D20146634652415B10104601D34042002BE5
:4019800000D54942704763465B1000D3404201B5002000F005F802BD0029F8D016E770477047C046F0B55F4656464D464446F0B40D0399464E002B0B87B0070092468046CD
:4019C0009B46760DCC0F002E69D06D4B9E4235D05B468022DD001204430F13432B439B46C3009846674B00279C460023664401934A4615035000D20F53462D0B400D9146EC
:401A000000D176E05E4A90426CD080225B0F120413435C4AED0094461D4353460022DB00604449463618701C6140029017430F2F00D9AFE05448BF00C759BF465B461F432B
:401A400000D088E000239B469846023308270193CEE74946022A6AD0032A00D109E2012A00D0BBE111400022002300259046CCB200212D030A0D12052D0B1543434A1B055F
:401A800015401D436D00E4076D0825434046290007B03CBC90469946A246AB46F0BD034352D05B46002B00D18AE1584600F06CFA03000B3B1C2B00DD7BE11D22D31A3A0010
:401AC00001005D46DA4008398D4013008F402B439B46B8462E4B00279C46002360444642019385E752462A432CD100250023022297E752462A4321D0002D00D154E12800DD
:401B000000F042FA03000B3B1C2B00DD46E11D21CB1A51460200D9405346083A954093400D431B4A944660444042002279E7012400220C40124B0025904699E700250023A3
:401B400001226EE703226CE700239B4698460133042701934CE703230C27019348E700238025984600242D03054B81E75D464346019A6FE75D4643462100019A6AE7C04643
:401B8000FF07000001FCFFFFA8210000FFFF0F80F30300004246120C91461A0C9446424617044A461B041B0C5A43604690464A4642431000039262461C003F0C7A437C4384
:401BC00042440192220C9246019A5244904506D98246802040028046C24450460390100C049048462404240C1204121905922A0C2D042D0C68432C00824648467C435043B5
:401C00008146200C8046574357444744BA4503D9802040028046C144380C3F04B84648442404240C01900498A044404404905846000C814658460404200C82460700484671
:401C40005F434C464343604660436446834650464443380C8446E4186444A34203D980235B029C46E34448463F04230C3F0C2404E419574668436F4384464D465046554360
:401C80004243380C814662444A445B44944503D9802040028446654403983F04834604983F0C8446E344C345804140428246100484460198674484466744A344BC46A345BD
:401CC000A4419946D44464428742BF41D4458041E144A04699459B417F424042C8440743120CBA18A045A4415F423B0064422343D71843467D19DB0D6D021D435B465A02FD
:401D0000059B1A43531E9A415B46DB0D1A4343465B021343EA0107D501225C0813402343EA07029E13436D08574AB218002A4BDD580709D00F201840042805D0181D984249
:401D40009B415B42ED180300E80104D54F4A15408022D200B2184E48824200DDE7E60124DB08680718436D02530580462D0B5B0D0C407DE6802259461203114208D015426A
:401D800006D115432D0398462D0B4C46414B6FE65D4615432D032D0B3E4B69E603005546283B9D400023BCE6504600F0EDF82030A8E60300283B9F400023BB46984689E65E
:401DC00000F0E2F8203073E60124A61A382E07DD00220C4000230025904649E6029EA3E71F2E20DC20222C001800921BF040944093400443581E83411C43F540630709D0B1
:401E00000F232340042B05D023001C1D9C4292415242AD182B021FD5012400220C4001230025904624E61F202C004042821AD440202E1CD04022961BB5402B43581E83413F
:401E40000720234318400025002809D00F2200251A401C00042AD8D1230068076D022D0B0124DB08034398460C40002300E60025E3E780220124120315432D0398462D0B91
:401E80000C40044BF4E5C046FF030000FFFFFFFEFE070000FF0700000B0330B5134D1A0B4B005B0DC90F0024AB4211DD104CA34210DC8024640322430E4CE41A1F2C0CDD75
:401EC0000D48C31ADA4013005C42002900D11C00200030BD094BCC18FAE7E040084CA44663449A4013000343EEE7C046FE0300001D0400003304000013040000FFFFFF7FAA
:401F0000EDFBFFFF70B5002830D0C317C4185C40C50F200000F038F8174B184A1B1AD21A1F2A18DD164AD21A9440002224035B05240B5B0D0021100024030A0D1205240BD0
:401F40001443104A1B0514401C436400ED0764082C43210070BD210091400A000B21081AC4405B052403240B5B0DE3E70025002300240022DEE7C0461E0400003304000074
:401F800013040000FFFF0F801C2101231B04984201D3000C10391B0A984201D3000A08391B09984201D30009043902A2105C40187047C04604030202010101010000000090
:401FC00000000000014B18687047C0469C0100200E4B70B500251E000D4CE41AA410A54204D0AB00F35898470135F8E700F0FEF8084B00251E00084CE41AA410A54204D0ED
:40200000AB00F35898470135F8E770BDF8210000F8210000F82100000022000003008218934202D019700133FAE770470000000000300F40000400400F40000438803E4037
:4020400058045F011801B401E2805304D4208B0497086C407008DC03190861028908A102B448B502C608D802E201EC0804300F4001310F4002330F4002400F4002410F4063
:4020800003420F400A430F40020202020202010107060504030207020000014004000140080001400C000140100001400800044008010440080204400803044008040440CB
:4020C00000000440000104400002044000030440000404400001020304050607800000004000000020000000100000000800000004000000800000000400000000010203E0
:40210000040506070101010101010101840200208C0200201C0100207C0200209C020020D4200000C4000020FC020020DC020020E402002014030020EC020020040300202E
:40214000300300207402002068210000FC20000004210000A10800007D0600004D050000410600007908000001010102020202040404040404040404030405060708090A03
:402180000B0C0E0F101112131415161718191B1C1D1E1F2021222325262728292A2B2E2F3031323334350000941B0000541A0000541A0000521A00006C1B00006C1B00005E
:4021C0005E1B0000521A00006C1B00005E1B00006C1B0000521A0000741B0000741B0000741B0000741D000043000000F8B5C046F8BC08BC9E4670472D0200003D04000050
:40220000F8B5C046F8BC08BC9E4670470502000020220000C0000020E000000098010000000000000000FF0F0000FF0F0000FF0F0000FF0F0000FF0F0000FF0F0000FF0FD4
:402240000000FF0FFF000000080204400802044008020440080204400802044008020440080104400801044014141414141414141E1E1E1E1E1E1E1E01000000020202024A
:4022800002020202010000000000E02EC05D00001800000000366E01040404000000000000000000000000000000000000000000000000000000000000000000E821000018
:4022C0000000000000000000000000000000000000000000000000000000000000000000000000000000000000000000000000000000000000000000000000003C01002081
:40230000000000000000000000000000000000000000000000000000000000000000000000000000000000000000000000000000000000000000000000000000000000009D
:40234000000000000000000000000000000000000000000000000000000000000000000000000000000000000000000000000000000000000000000000000000000000005D
:40238000000000000000000000000000000000000000000000000000000000000000000000000000000000000000000000000000000000000000000000000000000000001D
:4023C00000000000000000000000000000000000000000000000000000000000000000000000000000000000000000000000000000000000000000000000000000000000DD
:0200000490303A
:02000000E06AB4
:0200000490402A
:200000000000000000000000000000000000000000000000000000000000000000000000E0
:0200000490501A
:0C000000000204A61193110104B0F1FDF0
:0200000490600A
:0100000001FE
:00000001FF